:020000040800F2
:1000000070180020D500000859120008611000087F
:1000100000000000000000000000000000000000E0
:100020000000000000000000000000008F13000826
:100030000000000000000000A1120008FD130008ED
:10004000E7000008E7000008E7000008E7000008F4
:10005000E7000008E700000861020008E700000868
:1000600000000000E7000008E7000008E7000008C3
:10007000E7000008E700000800000000E7000008B3
:1000800000000000E7000008000000000000000081
:10009000E700000800000000E7000008E700000893
:1000A000E7000008E7000008E7000008E700000894
:1000B000E7000008E7000008000000000000000062
:1000C0000348854600F08EF800480047B518000840
:1000D000701800200448804704480047FEE7FEE708
:1000E000FEE7FEE7FEE7FEE771140008C100000826
:1000F00030B50B46014600202022012409E00D46C0
:10010000D5409D4205D31D469540491B2546954047
:1001100040191546521E002DF1DC30BDF0B51FB45C
:100120000646002082B005464024019100901BE065
:10013000019922460F46304600F042F8049A059B8A
:10014000801A994110D310461946224600F028F82B
:10015000361A8F410197224601200021009F00F0AE
:100160001FF838184D4100902046641E0028DFDC3F
:10017000019B00982946324607B0F0BDD2B201E09B
:100180000270401C491EFBD270470022F6E710B5F2
:1001900013460A4604461946FFF7F0FF204610BDF5
:1001A00010B5202A04DB0146203A9140002010BD02
:1001B000914020239C1A0346E3401943904010BD10
:1001C00010B5202A04DB0846203AD040002110BD9B
:1001D0000B46D340D0402024A21A91400843194630
:1001E00010BD0000064C0125064E05E0E36807CC73
:1001F0002B430C3C98471034B442F7D3FFF764FF0D
:10020000541900087419000870B58C180578401C42
:100210006B075B0F01D10378401C2A1106D10278CD
:10022000401C03E006780E70401C491C5B1EF9D18F
:100230002B0705D40023521E0DD40B70491CFAE77E
:100240000378401CCB1A921C03E01D780D70491CEA
:100250005B1C521EF9D5A142D8D3002070BD00000E
:1002600010B5024800F080F910BD0000B413002062
:1002700070B50C4605460022C721104600F074F800
:10028000002C0FD0C8212A46084600F0EBF8C72101
:10029000222000F0C1F8202000F0A4F8FF2000F098
:1002A000A1F870BDC821FF22084600F015F9EEE75D
:1002B00010B50F4C00220221204600F028FA6420DD
:1002C00000F043F901220221204600F020FA6420C8
:1002D00000F03BF900F010F806481F2100F056F836
:1002E000C021222000F098F8202000F07BF810BDFB
:1002F0000004005014190008FEB50421194800F04C
:1003000045F818480421001D00F040F81548022166
:10031000801F00F03BF813480221001F00F036F860
:1003200010480221801E00F031F84427684600265C
:1003300007721825467285724525C72405704470DA
:100340008670C6700671032102A800F01FF805210F
:10035000684600F01BF80022C721104600F004F8A0
:10036000FEBD00008E1300201CB54E246B461C7190
:1003700058714F20187059709A70022101A800F02E
:1003800005F80321684600F001F81CBDF8B50446E5
:100390000E46002505202A468021000700F0B7F907
:1003A0000F4F00220121384600F0B1F9207800F00B
:1003B000FAFF012211463846641C00F0A8F9761EA7
:1003C00005E0207800F0EFFF6D1CEDB2641CB54233
:1003D000F7DB052001228021000700F098F9F8BD25
:1003E0000004005070B50524054624070022802132
:1003F000204600F08CF900220121064800F087F920
:10040000284600F0D0FF01228021204600F07FF92D
:1004100070BD000000040050F8B50F46064600F01D
:1004200040FF0524240700228021204600F06FF9B8
:100430000B4D00220121284600F069F9304600F0FA
:10044000B2FF01221146284600F061F9384600F05B
:10045000AAFF01228021204600F059F9F8BD0000D2
:1004600000040050F7B500251446410705D04107A8
:10047000490F0822511A0818C0B2C70800F011FF2E
:10048000052000228021000700F041F9114E0022D2
:100490000121304600F03BF9242000F084FF0122C6
:1004A0001146304600F033F909E0002604E02078D8
:1004B00000F079FF641C761CBE42F8DB6D1C0198CD
:1004C0008542F2D3052001228021000700F01FF9A8
:1004D000FEBD000000040050F7B50E4600244107A1
:1004E00005D04107490F0822511A0818C0B2C708A1
:1004F00000F0D7FE052000228021000700F007F958
:10050000104D00220121284600F001F9242000F0BE
:100510004AFF01221146284600F0F9F808E00025BC
:1005200003E0029800F03FFF6D1CBD42F9DB641C44
:10053000B442F4D3052001228021000700F0E7F83F
:10054000FEBD000000040050704770B5044600F086
:10055000E5F80546601C00D0641C00F0DFF8401B85
:10056000A042FAD370BD00000178CA06D20E012164
:100570009140054A53690B4204D0516140680028FC
:1005800000D000477047000000040140F8B5002388
:100590000124A2E027469F403A4070D04D68022DCA
:1005A00001D0122D14D1DD08AD002D1800952D6A53
:1005B0005E07AC46F50E0F26AE46AE406546B54327
:1005C000AC460E697546AE4065462E43009D2E62D0
:1005D0004D68012D05D0022D03D0112D01D0122D13
:1005E00016D185680326AC465D00AE46AE40654632
:1005F000B543AC46CE687546AE4065462E43866030
:1006000046680D79BE43ED06ED0F9D4035434560CC
:1006100006685F000325BD40AE46AE430D79B44683
:10062000AE07B60FBE4065462E430660C6687546E7
:10063000AE438D68BD403543C5604D68ED004BD578
:10064000294D6E6B26436E639E08284DB6007519C2
:10065000AC46AD689E07360F0F27B740BD43052750
:100660003F07B84201D1002715E0214FB84201D120
:10067000012710E01F4FB84202D102270BE02BE008
:100680001D4FB84201D1032705E01C4FB84201D1EC
:10069000052700E00627B7402F436546AF60184D99
:1006A0002E684F689643FF0300D516432E606E6890
:1006B0004F689643BF0300D516436E60AE684F681F
:1006C0009643FF0200D51643AE60EE684F6896432E
:1006D000BF0200D51643EE605B1C0A681546DD407C
:1006E00000D057E7F8BD00000010024000000140B4
:1006F0000004005000080050000C0050001C005086
:10070000000401400069084000D001207047002A21
:1007100001D0816170478162704700000148006824
:1007200070470000BC13002002480168491C0160AA
:1007300070470000BC13002010B508480024016871
:10074000402211430160204600F00AF8002801D041
:10075000012401E000F01CF8204610BD00200240FA
:1007600070B5054609487D210024C9000068FFF7DF
:10077000BFFC00F0F9FB002801D0012404E00022B6
:100780002946501E00F01AF8204670BDC013002004
:100790000448416B012211434163816B0204114300
:1007A0008163704700100240C106C90E01208840D5
:1007B000014908607047000000E100E010B500F05A
:1007C0004DFD10BDF8B504460078544D800672D535
:1007D000524E0027403EB06BC00004D4B06BA90558
:1007E0000843B06301274E480168C90511D4016868
:1007F000821511430160FFF791FF009005E0FFF7BC
:100800008DFF0099401A642837D845480068C00514
:10081000F5D532680321090560680A40014091421C
:1008200008D08103890F032904D13168890301D5D8
:100830000120F8BD2A69032109040A4022D008409A
:1008400090421FD0207880061CD528692A698843E9
:100850000121C9040A432A612A698A432A6128615D
:10086000C0050FD5FFF75AFF009008E0FFF756FFCD
:100870000099411A2B48814201D90320F8BD28690B
:100880008005F3D561688803800F032805D132689D
:100890000005824301400A433260286903226168EF
:1008A0001204114008432861002F04D0B16B0120CD
:1008B00000078143B1632078C00705D0E868A168CC
:1008C000800880000843E8602078800705D5E86844
:1008D0000C218843E1680843E8602078400706D58A
:1008E000E86803218902884321690843E860207889
:1008F000000706D5E86803210903884361690843B6
:10090000E8602078000606D5E8680321890488435A
:10091000A1690843E8600020F8BD000040100240D3
:100920000070004088130000F8B50E4605007DD029
:1009300053480068C007C00FB0420AD2504801684F
:1009400049084900314301600068C007C00FB04248
:1009500071D128784B4C800705D5E068F021884399
:10096000A9680843E0602878C00752D06868022868
:1009700017D0032818D02168012818D0890500292C
:1009800059DAE168890889000143E160FFF7C6FE92
:1009900069680746022912D003291CD0012926D0F4
:1009A00033E021688903EAE721688901E7E749071D
:1009B000E5E7FFF7B3FEC11B3348814223D8E06867
:1009C0000007800F0228F4D123E0FFF7A7FEC11B28
:1009D0002D48814217D8E0680007800F0328F4D122
:1009E00017E0FFF79BFEC11B274881420BD8E06848
:1009F0000007800F0128F4D10BE0FFF78FFEC11B29
:100A00002148814201D90320F8BDE0680007800F2A
:100A1000F3D11B480168C907C90FB1420DD901685C
:100A20004908490031430160006800E003E0C00765
:100A3000C00FB04201D00120F8BD2878400706D58C
:100A4000E068072109028843E9680843E0602878E4
:100A5000000707D5E0680721C90288432969C90052
:100A60000843E06000F036F8E168084A0906090F1B
:100A7000515CC840064908600020FFF771FEF8BDD0
:100A800000200240001002408813000033190008C3
:100A9000C0130020044805490068C968044A490594
:100AA000490F515CC8407047C0130020001002403D
:100AB0004C190008044805490068C968044A8904BB
:100AC000490F515CC8407047C0130020001002401D
:100AD0004C19000810B5184AD1680C2008400428A9
:100AE0000BD0082810D00C2810D050680004410FFB
:100AF0000120C003491C884010BD1068C00601D504
:100B00000E4810BD0E4810BD0E4810BD88020E4B99
:100B1000000F185C0902D368890F491CDB0301D55B
:100B2000084A05E01268D20601D5044A00E0044AEA
:100B30005043FFF7DDFA10BD0010024000093D00F0
:100B40000024F40000127A0043190008FEB50500E5
:100B50007ED0FE4CE7680C20E668074001200004C8
:100B600006402878C00747D0082F05D00C2F0AD19F
:100B700001200004864206D1206880033CD56868C5
:100B80000028E5D038E0012069680004814203D1E3
:100B900021680143216011E0052301221B04920416
:100BA0009942216802D111432160F1E7814321601C
:100BB0002168014000912068904320606868002807
:100BC0000DD0FFF7ABFD009005E0FFF7A7FD009902
:100BD000401A64287AD820688003F6D50CE0FFF725
:100BE0009DFD009005E0FFF799FD0099401A6428EB
:100BF000F0D820688003F6D42878800755D50923DB
:100C0000E868042F0DD00C2F01D1002E09D0002848
:100C10003BD02168994301432160FFF77FFD0646E1
:100C200027E02168490701D5002891D061681F227B
:100C3000120291432A6912021143616021689943AB
:100C400001432160FFF746FFE16809060A0F00E053
:100C500079E1BF49895CC840BE4908600020FFF7C0
:100C60007FFD002872D120E0FFF758FD801B02288D
:100C7000B0D820684007F7D560681F210902884373
:100C800029690902084360600FE0206840084000BD
:100C90002060FFF743FD064604E0FFF73FFD801BA1
:100CA000022897D820684007F7D42878C0065FD577
:100CB000002F0CD0A869002849D02068FF210131FD
:100CC00008432060FFF72AFD06462DE0C0E02068BB
:100CD000800502D5A8690028A7D0606807214903CC
:100CE0008843296A084360606068297F0002000A1F
:100CF000090608436060286A410B0120C003491CB3
:100D00008840E16809060A0F9149895CC840914909
:100D100008600020FFF724FD002817D128E0FFF726
:100D2000FDFC801B0228A3D820688005F7D56068E9
:100D3000072149038843296A084360606068297F66
:100D40000002000A09060843606011E0E1E0216842
:100D5000FF20013081432160FFF7E0FC064604E0FC
:100D6000FFF7DCFC801B022872D820688005F7D4CE
:100D70002878794E000724D568690028306910D09A
:100D8000012108433061FFF7C9FC009005E0FFF73F
:100D9000C5FC0099401A02285AD830698007F6D558
:100DA0000FE0400840003061FFF7B8FC009005E01C
:100DB000FFF7B4FC0099401A022849D8306980072F
:100DC000F6D42878400765D500200290A06BC000BB
:100DD00006D4A06B012109070843A06301200290FB
:100DE0005E480168C90511D401688215114301608C
:100DF000FFF794FC009005E0FFF790FC0099401A83
:100E0000642825D855480068C005F5D5FF20AA6894
:100E10000130824203D131690143316111E0012186
:100E20008902002A07D005231B029A4203D13269A6
:100E30000A433261EFE732698243326130698843A5
:100E40003061A86800280FD0FFF768FC009007E029
:100E50005EE0FFF763FC0099411A4148814257D890
:100E600030698005F5D50DE0FFF758FC009006E0ED
:100E7000FFF754FC0099411A3948814248D830693B
:100E80008005F5D40298002804D0A06B0121090741
:100E90008843A063686A002864D00C2F3ED00126E6
:100EA00036060228206805D0B0432060FFF736FCE4
:100EB00005462FE0B0432060FFF730FC074604E012
:100EC000FFF72CFCC01B022822D820688001F7D431
:100ED000E96AA86AE2680843296BFD231B049A4368
:100EE00011430843E060206830432060FFF716FCA0
:100EF000054604E0FFF712FC401B022808D82068D2
:100F00008001F7D52EE0FFF709FC401B022801D92C
:100F10000320FEBD20688001F5D423E00128F8D02D
:100F2000E06801210904AA6A014091420BD10F2116
:100F30008904EA6A0140914205D1032189050840EC
:100F4000296B88420ED00120FEBD00000010024037
:100F500033190008C0130020401002400070004008
:100F6000881300000020EFE7094910B5401E8842B1
:100F700001D9012010BD074C60610321081F00F05A
:100F80006DF90020A06107202061002010BD000045
:100F9000FFFFFF0000E000E010B5040003D0606F29
:100FA000002802D007E0012010BD0021702001556B
:100FB000204600F027F8242060672068016849086F
:100FC00049000160204600F013FB0128ECD0606A64
:100FD000002802D0204600F075FA206841680922F6
:100FE000D20291434160206881682A229143816046
:100FF00020680168012211430160204600F0C8FA10
:1010000010BD000010B586B0044614216846FFF7F5
:10101000BCF81149206888421CD11048416B01225C
:10102000920311434163C16A01221143C162C06A44
:101030006946104005900320400200900220019074
:101040000020029003200390042004900520000754
:10105000FFF79CFA06B010BD0038014000100240B6
:10106000FEE70000F0B587B014216846FFF78DF861
:101070003248C26A04210A43C262C26A0A40059227
:10108000C16A01263143C162C16A31400591C26A19
:1010900002210A43C262C06A052708403F07059043
:1010A0000022F4213846FFF732FB002203212448B6
:1010B000FFF72DFB03208003032400256A4631C27D
:1010C00069462048FFF762FA1F486A4631C26946FE
:1010D0003846FFF75BFAF4200090029569460196C6
:1010E00003953846FFF752FA082000901748019000
:1010F000694602953846FFF749FA02956946104855
:10110000019603950094FFF741FA30020090019593
:10111000694602953846FFF739FA38206A4631C2E7
:1011200069460748FFF732FA002211460620FFF70A
:1011300045FB0620FFF738FB07B0F0BD001002406A
:101140000004005000080050039800000000111037
:1011500070B5214C207801283DD121460C3100206A
:1011600000F062F820460C3080780025012831D14B
:10117000211D002000F060F8A088401C80B2A080F3
:10118000032802D0C82802D018E0A56022E0052676
:101190003607012204213046FFF7B9FA0F48A1684B
:1011A00000224118C823104600F04EF8A068002223
:1011B000C830A06004213046FFF7A9FA0849A068AA
:1011C000884207D101210548A560FFF751F805487D
:1011D000FFF7BBF9257070BD9813002000000020B8
:1011E00088130000B80B000010B5FFF7B1FF10BD69
:1011F00010B50C480A490160E12149024160002113
:101200008160C16001618161C1610C220162426142
:101210004162FFF7C1FE002801D0FFF795F910BD2C
:1012200000380140C413002010B5024800F06EF8E9
:1012300010BD00004414002010B5024800F085F8ED
:1012400010BD00004414002010B5024800F082F8E0
:1012500010BD000044140020704700008307FF22E7
:10126000DB0E9A408907090E994000280BDA000727
:10127000000F0838830808489B001818C369934377
:101280000B43C3617047830804489B001B18186810
:10129000904308431860704700ED00E000E400E070
:1012A0007047F8B5FF260527002401363F07FF25C4
:1012B000913531463846FFF725FA002807D00A2035
:1012C000FFF743F9641CAC42F3D30020F8BD0120C2
:1012D000F8BD000010B50A460123044900F050F89B
:1012E000002801D00020C04310BD000007200000EE
:1012F00010B50A460123044900F042F8002801D045
:101300000020C04310BD00000620000038B50C4688
:1013100069461830FFF7ECFF002815D168460078C1
:10132000C007C00F2070684600788107C90F617040
:101330004107C90FA170C106C90FE1708106C90F2D
:10134000217180096071002038BD10B51830FFF799
:10135000C1FF10BD30B40D46FF2101318A4203D9CF
:10136000002030BCC04370470449046951182A4624
:10137000A44630BC89B2A6206047000008200000C7
:1013800030B4044664688068A44630BC6047704747
:1013900006E00021491C0906090EFBD0401EC0B220
:1013A0000028F6D1704770B505460120FFF7F0FF21
:1013B000002405263607002240213046FFF7A7F912
:1013C0000120FFF7E5FF280601D5012200E00022F9
:1013D00020213046FFF79BF96806050E0120FFF734
:1013E000D7FF012240213046FFF791F90120FFF796
:1013F000CFFF641CE4B2082CDDD370BD10B5FFF73D
:1014000093F910BD30B599B034216846FEF7BDFEA2
:1014100014210DA8FEF7B9FE1C2112A8FEF7B5FE97
:10142000124801680322D2029143C2148918016054
:1014300002200090002410200994012504900395B7
:101440006846FFF783FB0F200D900F941094002146
:101450000E9511940DA8FFF767FA092017941290C2
:10146000149412A8FFF7AEF919B030BD0070004017
:1014700010480168821511430160C1680E4A11408D
:10148000C16001680D4A1140016081684908490046
:10149000816001680122920491430160C168FD22CC
:1014A00012049143C160002101610549C0038860B5
:1014B00070470000001002400C40FF88F6FFF6FE67
:1014C00000ED00E010B5818CC90707D001684A68BB
:1014D00001235B049A43836A1A434A60818C89071B
:1014E00007D501684A6801231B049A43C36A1A435B
:1014F0004A60818C490707D501684A6801239B042B
:101500009A43036B1A434A60818C090707D5016827
:101510004A680123DB039A43436B1A434A60818C78
:10152000C90607D50268916801231B039943836BA1
:1015300019439160818C890607D501688A68012367
:101540005B039A43C36B1A438A60818C490612D5A8
:1015500003685A6801210905046C8A4322435A60D2
:10156000026C8A4207D10268516803235B059943E4
:10157000436C19435160818C090607D501684A689C
:101580000123DB04806C9A4302434A6010BD0000D3
:10159000F8B500260446C667FFF7C0F80546206880
:1015A0000068124F000709D501212B46002249058A
:1015B0002046009700F030F900280DD1206800681F
:1015C00040070BD501212B460022890520460097B4
:1015D00000F022F9002801D00320F8BD2020606728
:1015E000A067603426740020F8BD0000FFFFFF01F3
:1015F000F8B504462669A268E76932436669102097
:1016000000253E432368324378491E68784F3E40A8
:1016100016431E6023685A6803263603B243E66801
:1016200032435A602368A2698B4201D0266A324352
:101630009E680B273F02BE4316439E606D4E236893
:101640006D4AB3420CD1D2689207920F06D0012A9C
:1016500038D0022A34D0032A20D11EE001201DE018
:10166000664EB3420AD1D2680C26324026D0042AF4
:1016700028D0082A24D00C2A10D10EE08B420DD19C
:10168000D66803229202164018D001229202B61A9E
:1016900018D0B61A14D0964200D10820564A012616
:1016A000403A574FF6038B4236D100280CD002281F
:1016B0000DD0042812D008281FD11CE00020EDE72F
:1016C0000220EBE70420E9E7FFF7E4F908E01068FF
:1016D000C00601D5384605E04A4803E0FFF7FAF9AD
:1016E000002873D0626851005118814205D8110357
:1016F000814202D303E03046F4E7012566E0010EA3
:1017000006025008002330185941FEF707FD032157
:101710000902411A3C4A55E0E169B14232D1030065
:1017200000F0ABF809070A0D06250606062B060091
:10173000E3E7FFF7AFF91CE0FFF7BCF919E0106829
:101740006168C00602D54808304A01E0304A4808BE
:101750008018FEF7CDFC80B201462E4A1039914226
:10176000CBD8511C01400007400F08432CE0FFF785
:10177000B1F9616840004A08EAE761680122480857
:101780001204E5E7030000F078F809070A0D0626C1
:101790000606062C0600B0E7FFF77CF91DE0FFF710
:1017A00089F91AE010686168C00602D54808C019B6
:1017B00002E014484A081018FEF79AFC80B201466D
:1017C000144A1039914298D82168C86000202066D8
:1017D00060662846F8BDFFF77DF961684A08801801
:1017E000EAE7616848088019E6E700000048004021
:1017F000F369FFEF00380140401002400044004010
:1018000000093D000024F400FFFC0F0000127A00E4
:101810000048E801EFFF0000FFB581B017460E4613
:1018200004460A9D09E0681C07D0FEF777FF04997B
:10183000401AA8420CD8002D0AD02068C169304651
:10184000884318D00020B842EDD0002005B0F0BD8C
:1018500020680168FF22A1329143016020688168FD
:1018600049084900816020206067A067002060343B
:1018700020740320EAE70120E5E730B47446641ED3
:101880002578641CAB4200D21D46635D5B00E31803
:1018900030BC184702E008C8121F08C1002AFAD15C
:1018A00070477047002001E001C1121F002AFBD1E0
:1018B00070470000FEF740FFFFF7A4FDFFF7D2FBE3
:1018C000FFF796FCFEF7F4FC052424070022042110
:1018D0002046FEF71CFF7D25ED002846FEF735FE6D
:1018E00000210B48FEF7C4FC012204212046FEF72C
:1018F0000EFF01210648FEF7BBFC2846FEF725FE39
:10190000002204212046FEF702FFFFF76DFCFCE7F2
:10191000000000203266664466AA11800811188112
:10192000181188118811880000FFFFFFFF5FAFFFCB
:10193000FF2F000000000000000000010203040669
:10194000070809030406080C1018203000000000E6
:10195000010203047419000800000020C4130000F1
:1019600008020008281C0008C4130020AC04000072
:10197000A41800080AFDFF0109FD0109FD0109FD88
:101980000109FD0109FD010914018D803FF8030ED5
:1019900012FE9A7F190A130119DAC0197A3F19AA9F
:1019A0001F19AAFF194AFC19FBE00F19511D3FE04E
:1019B0000F8015092A19DAF0194BE00F192D1FF0C5
:1019C0000FC0190A101F19193619D799190A20FEC4
:1019D0001919151139B569191E7FE007FFFF195252
:1019E00010491B2BFBF0191AF019CAF8190C17F93A
:1019F000F007190A13FF194AF8193A03195208197E
:101A00002529190A1A70192A3F19BCFC03E0192A62
:101A100038190A12F8194B03FFE1BCFC03F0194D09
:101A20001803FF80191B01F09029EB3901AAF01966
:101A3000191589195A08190A100F194A9F19CAFE4F
:101A400019BDF804018F1919A04919115B01071973
:101A5000115AF80A391912FC7C0103C019490A39D4
:101A60001922FE1501C01FFC290A5AF823494C31DE
:101A70000B17C00F191AFE196AFF1959981A804BD3
:101A80005919BAFC1912C05B01E019BC7C03E019BA
:101A90002A03192A7F55AA011912E09A07192B0166
:101AA000F83C59193C0F600719196E6DF001F801E7
:101AB0001912F0431F202A031912F8893212F85222
:101AC0003F591929D269198A7F1912FC7A7C199A0F
:101AD000FC191112FEFA3C192A011912FF7A1C197D
:101AE00012FE5A7E1919F712FF6A1F1819196A3E59
:101AF00019123E7CFF800F198119191A1F1959F705
:101B00005919197919431919194E3119EDE919DAC9
:101B1000401919920916191AC019CAE01919BE7983
:101B2000190B148060190A120F1919C019195220C3
:101B30006A3F19122009121919464AF00F16F00FC0
:101B4000803FFE195459018CE01FF819AAFF197A39
:101B50000F191DC03FFF805479195AFC1918080746
:101B6000C038038007FF3859197AFE190C10180382
:101B7000C0192A1F195E01C003FF80674CE00FFFE8
:101B800019196B8C1801E0191AF03D4E1FFC07FF64
:101B9000FF196A1F1912F029193BFE03194A1C3C50
:101BA00079191AC099091119112A0F192A7F19CA0E
:101BB0000C19AD07E007F81949E4293229191BFF70
:101BC000FFE8E9190C17F003F0193A010D49EB8908
:101BD000190C10F801E01919F7291919C879191900
:101BE000ED390129AD5919D9016D8FFC03FC26C9C6
:101BF000015CFE3FFF580910010A16CF1909FD01CB
:101C000009FD0109FD0109FD0109FD0109FD0109A8
:101C1000530120093A1A3B08110101C7051E0CD7D0
:081C2000D69D2203A20612204A
:04000005080000C12E
:00000001FF
