:020000040800F2
:1000000000200020693C0008B53A0008B93A000811
:1000100000000000000000000000000000000000E0
:10002000000000000000000000000000BD3A0008D1
:100030000000000000000000C13A0008C53A0008B6
:10004000B93C0008B93C0008B93C0008B93C0008BC
:10005000B93C0008B93C0008CD3A0008B93C00089A
:1000600000000000B93C0008B93C0008B93C000899
:10007000B93C0008B93C000800000000B93C000889
:1000800000000000B93C0008000000000000000073
:10009000B93C000800000000B93C0008B93C000869
:1000A000B93C0008B93C0008B93C0008B93C00085C
:1000B000B93C0008B93C0008000000000000000046
:1000C00010B5064C2378002B07D1054B002B02D02E
:1000D000044800E000BF0123237010BD2814002055
:1000E000000000005C4C0008044B10B5002B03D04E
:1000F0000349044800E000BF10BDC04600000000F6
:100100002C1400205C4C0008002243088B4274D35E
:1001100003098B425FD3030A8B4244D3030B8B4208
:1001200028D3030C8B420DD3FF22090212BA030C11
:100130008B4202D31212090265D0030B8B4219D3F2
:1001400000E0090AC30B8B4201D3CB03C01A524112
:10015000830B8B4201D38B03C01A5241430B8B425A
:1001600001D34B03C01A5241030B8B4201D30B0343
:10017000C01A5241C30A8B4201D3CB02C01A52416A
:10018000830A8B4201D38B02C01A5241430A8B422D
:1001900001D34B02C01A5241030A8B4201D30B0216
:1001A000C01A5241CDD2C3098B4201D3CB01C01A30
:1001B000524183098B4201D38B01C01A524143093A
:1001C0008B4201D34B01C01A524103098B4201D328
:1001D0000B01C01A5241C3088B4201D3CB00C01A95
:1001E000524183088B4201D38B00C01A524143080D
:1001F0008B4201D34B00C01A5241411A00D2014632
:10020000524110467047FFE701B5002000F006F8A4
:1002100002BDC0460029F7D076E770477047C04658
:10022000002B11D1002A0FD1002900D1002802D0C3
:100230000021C943081C07B4024802A140180290DB
:1002400003BDC046D9FFFFFF03B4684601B502985D
:1002500000F006F8019B9E4602B00CBC7047C046F9
:10026000F0B557464E464546DE46E0B504000D0063
:100270009246994683B08B4230D82DD0494650469D
:1002800000F0BAF829000600200000F0B5F8331A93
:100290009846203B9B4633D45A46534693404246A9
:1002A0001F00534693401E00AF423AD8AF4200D1E0
:1002B00078E05B46A41BBD41002B00DA75E000220C
:1002C00000230092019301235A4693400193012396
:1002D00042469340009328E08242CFD90022002377
:1002E000009201930C9B002B01D01C605D60009874
:1002F000019903B03CBC90469946A246AB46F0BD7E
:10030000424620239B1A5246DA40414613004A4691
:100310008A40170042461F43534693401E00AF4297
:10032000C4D900220023009201934346002BD9D068
:10033000FB0772081A4346467B080EE0AB4201D128
:10034000A2420CD8A41A9D41012024196D4100211C
:10035000013E24184D41002E06D0AB42EED9013E9D
:1003600024196D41002EF8D1009801995B460019BF
:100370006941002B24DB2B005A464446D3402A0017
:10038000E2401C005B461500002B2ADB26009E4045
:10039000330026004746BE403200801A9941009043
:1003A00001919FE7A342BCD883E742462023002166
:1003B0009B1A0022009101920122DA40019286E705
:1003C000424620239B1A2A0046469A402300F340C7
:1003D000444613432A00E2401C005B461500002BF4
:1003E000D4DA42462F002023260097409B1ADE4095
:1003F0003B003343CDE7C04610B5002903D100F0E0
:1004000007F8203002E0081C00F002F810BDC046DA
:100410001C2101231B04984201D3000C10391B0A34
:10042000984201D3000A08391B09984201D30009F8
:10043000043902A2105C40187047C046040302024F
:1004400001010101000000000000000003B471463A
:10045000490840004900095E49008E4403BC7047CA
:10046000F0B5C64600B5002284B00221E74801F08D
:1004700039FD642001F036FB01220221E34801F03E
:1004800031FD642001F02EFBA020082400228021F1
:10049000C00501F027FD00220121DC4801F022FD0A
:1004A000DB4E3578A02000224021C00501F01AFD66
:1004B0006BB20122002B00DB0022A0202021C0050E
:1004C00001F010FDA020013C012240216D00C0057B
:1004D000E4B201F007FDEDB2002CE3D101220121CD
:1004E000CA4801F0FFFC771C043608243D78A020A0
:1004F00000224021C00501F0F5FC6BB20122002B67
:1005000000DB0022A0202021C00501F0EBFCA02090
:10051000013C012240216D00C005E4B201F0E2FC83
:10052000EDB2002CE3D10137B742DED1A020012289
:100530008021C00501F0D6FCA020082400228021E3
:10054000C00501F0CFFC00220121B04801F0CAFC37
:10055000B04E3578A02000224021C00501F0C2FC39
:100560006BB20122002B00DB0022A0202021C0055D
:1005700001F0B8FCA020013C012240216D00C00523
:10058000E4B201F0AFFCEDB2002CE3D10122012175
:100590009E4801F0A7FC771C043608243D78A02073
:1005A00000224021C00501F09DFC6BB20122002B0E
:1005B00000DB0022A0202021C00501F093FCA02038
:1005C000013C012240216D00C005E4B201F08AFC2B
:1005D000EDB2002CE3D10137B742DED1A0200122D9
:1005E0008021C00501F07EFCA0200824002280218B
:1005F000C00501F077FC00220121844801F072FC63
:10060000854E3578A02000224021C00501F06AFC0B
:100610006BB20122002B00DB0022A0202021C005AC
:1006200001F060FCA020013C012240216D00C005CA
:10063000E4B201F057FCEDB2002CE3D10824012212
:100640000121724801F04EFC7578A0200022402163
:10065000C00501F047FC6BB20122002B00DB002239
:10066000A0202021C00501F03DFCA020013C01227A
:1006700040216D00C005E4B201F034FCEDB2002C65
:10068000E3D1A02001228021C00501F02BFCA02095
:10069000082400228021C00501F024FC0022012151
:1006A0005A4801F01FFC5D4E3578A0200022402101
:1006B000C00501F017FC6BB20122002B00DB002209
:1006C000A0202021C00501F00DFCA020013C01224A
:1006D00040216D00C005E4B201F004FCEDB2002C35
:1006E000E3D1082401220121484801F0FBFB757881
:1006F000A02000224021C00501F0F4FB6BB20122D2
:10070000002B00DB0022A0202021C00501F0EAFB25
:10071000A020013C012240216D00C005E4B201F09F
:10072000E1FBEDB2002CE3D1A02001228021C00525
:1007300001F0D8FBA020082400228021C00501F090
:10074000D1FB00220121314801F0CCFB344E357839
:10075000A02000224021C00501F0C4FB6BB20122A1
:10076000002B00DB0022A0202021C00501F0BAFBF5
:10077000A020013C012240216D00C005E4B201F03F
:10078000B1FBEDB2002CE3D10824012201211F4866
:1007900001F0A8FB7578A02000224021C00501F0DF
:1007A000A1FB6BB20122002B00DB0022A020202144
:1007B000C00501F097FBA020013C012240216D0003
:1007C000C005E4B201F08EFBEDB2002CE3D1A02015
:1007D00001228021C00501F085FB442301AE338056
:1007E0002C3BB3700F4BA0200293002300228021EA
:1007F000C00502AD2B7101F075FB002201210348F9
:1008000001F070FB082444270EE0C04600040050AD
:10081000040000201000002000000020080000203C
:100820000C00002045C70000A02000224021C00588
:1008300001F058FB7BB20122002B00DB0022A0203C
:100840002021C00501F04EFBA020013C01224021E7
:100850007F00C005E4B201F045FBFFB2002CE3D1FC
:1008600001220121C34801F03DFB06236B44984659
:1008700008247778A02000224021C00501F032FB37
:100880007BB20122002B00DB0022A0202021C0052A
:1008900001F028FBA020013C012240217F00C0057F
:1008A000E4B201F01FFBFFB2002CE3D10136B045EA
:1008B000DED1A02001228021C00501F013FBA02081
:1008C00000228021C00501F00DFB00220121A94872
:1008D00001F008FB08244526A02000224021C00585
:1008E00001F000FB73B20122002B00DB0022A020EC
:1008F0002021C00501F0F6FAA020013C0122402190
:100900007600C005E4B201F0EDFAF6B2002CE3D1B6
:1009100001220121974801F0E5FA0D2309276B44D4
:1009200098466F4408243E78A02000224021C0054C
:1009300001F0D8FA73B20122002B00DB0022A020C4
:100940002021C00501F0CEFAA020013C0122402167
:100950007600C005E4B201F0C5FAF6B2002CE3D18E
:1009600001374745DED1A02001228021C00501F0DA
:10097000B9FA814BA0202B80002300228021C005E2
:10098000AB7001F0AFFA002201217A4801F0AAFA17
:1009900008244E26A02000224021C00501F0A2FA22
:1009A00073B20122002B00DB0022A0202021C00511
:1009B00001F098FAA020013C012240217600C005F8
:1009C000E4B201F08FFAF6B2002CE3D1012201214A
:1009D000684801F087FA0824A02000224021C005C1
:1009E00001F080FAA02000222021C00501F07AFA4F
:1009F000A020013C01224021C005E4B201F072FABE
:100A0000002CE9D1A02001228021C00501F06AFA62
:100A1000A02000228021C00501F064FA00220121FB
:100A2000544801F05FFA4F260834A02000224021EC
:100A3000C00501F057FA73B20122002B00DB00223F
:100A4000A0202021C00501F04DFAA020013C012288
:100A500040217600C005E4B201F044FAF6B2002C61
:100A6000E3D1012201210A27424801F03BFA6F44F9
:100A700008246E78A02000224021C00501F032FA3F
:100A800073B20122002B00DB0022A0202021C00530
:100A900001F028FAA020013C012240217600C00587
:100AA000E4B201F01FFAF6B2002CE3D10135AF42F7
:100AB000DED1A02001228021C00501F013FAA02080
:100AC00000228021C00501F00DFA002201212948F1
:100AD00001F008FA08243225A02000224021C00598
:100AE00001F000FA6BB20122002B00DB0022A020F3
:100AF0002021C00501F0F6F9A020013C012240218F
:100B00006D00C005E4B201F0EDF9EDB2002CE3D1C7
:100B100001220121174801F0E5F9184F7E1C1F370B
:100B200008243578A02000224021C00501F0DAF920
:100B30006BB20122002B00DB0022A0202021C00587
:100B400001F0D0F9A020013C012240216D00C00538
:100B5000E4B201F0C7F9EDB2002CE3D10136BE4298
:100B6000DED1A020C82401228021C00501F0BAF9FD
:100B700064000BE0000400504FC7FFFF744C0008F6
:100B80000A20013C00F0AEFF002C07D08021A020FD
:100B90004900C00501F0A0F90028F1D1A0200022F1
:100BA0008021C00501F09EF9002201213E4801F09C
:100BB00099F908242225A02000224021C00501F037
:100BC00091F96BB20122002B00DB0022A020202132
:100BD000C00501F087F9A020013C012240216D00F1
:100BE000C005E4B201F07EF9EDB2002CE3D10122A0
:100BF00001212D4801F076F90824C025A02000220B
:100C00004021C00501F06EF96BB20122002B00DB20
:100C10000022A0202021C00501F064F9A020013CA1
:100C2000012240216D00C005E4B201F05BF9EDB294
:100C3000002CE3D1A02001228021C00501F052F94F
:100C4000A02000228021C00501F04CF900220121E2
:100C5000154801F047F908242025A0200022402152
:100C6000C00501F03FF96BB20122002B00DB00222E
:100C7000A0202021C00501F035F9A020013C01226F
:100C800040216D00C005E4B201F02CF9EDB2002C5A
:100C9000E3D1A02001228021C00501F023F904B096
:100CA00004BC9046F0BDC04600040050F0B5CE46EE
:100CB000474680B58E4B83B001AE0400A020338040
:100CC00000230022C00589468021B37001F00AF993
:100CD00000220121874801F005F908254E27A020B0
:100CE00000224021C00501F0FDF87BB20122002B5B
:100CF00000DB0022A0202021C00501F0F3F8A02095
:100D0000013D012240217F00C005EDB201F0EAF86B
:100D1000FFB2002DE3D101220121764801F0E2F873
:100D20000825A02000224021C00501F0DBF8A0200A
:100D300000222021C00501F0D5F8A020013D0122AC
:100D40004021C005EDB201F0CDF8002DE9D1A02081
:100D500001228021C00501F0C5F8A02000228021D9
:100D6000C00501F0BFF800220121624801F0BAF885
:100D70004F270835A02000224021C00501F0B2F81D
:100D80007BB20122002B00DB0022A0202021C00525
:100D900001F0A8F8A020013D012240217F00C005FC
:100DA000EDB201F09FF8FFB2002DE3D10122012145
:100DB000504801F097F806236B4498460825777849
:100DC000A02000224021C00501F08CF87BB2012256
:100DD000002B00DB0022A0202021C00501F082F8BA
:100DE000A020013D012240217F00C005EDB201F0AD
:100DF00079F8FFB2002DE3D101364645DED1A020BF
:100E000001228021C00501F06DF84B46002B00D077
:100E100035E1C824640005E00A20013C00F062FED0
:100E2000002C07D08021A0204900C00501F054F813
:100E30000028F1D1A02000228021C00501F052F845
:100E4000002201212B4801F04DF808242425A02080
:100E500000224021C00501F045F86BB20122002BB1
:100E600000DB0022A0202021C00501F03BF8A020DB
:100E7000013C012240216D00C005E4B201F032F8CE
:100E8000EDB2002CE3D1012201211A4801F02AF829
:100E9000C82719260824FF25A02000224021C005CC
:100EA00001F020F86BB20122002B00DB0022A02011
:100EB0002021C00501F016F8A020013C01224021AC
:100EC0006D00C005E4B201F00DF8EDB2002CE3D1E5
:100ED000013E002EDED1013F002FDAD1A020C82430
:100EE00001228021C00500F0FDFF64000AE0C04639
:100EF0004FC7FFFF000400500A20013C00F0F2FD44
:100F0000002C07D08021A0204900C00500F0E4FF9C
:100F10000028F1D1A02000228021C00500F0E2FFCE
:100F2000002201218A4800F0DDFF08242225A020AC
:100F300000224021C00500F0D5FF6BB20122002B3A
:100F400000DB0022A0202021C00500F0CBFFA02064
:100F5000013C012240216D00C005E4B200F0C2FF57
:100F6000EDB2002CE3D101220121794800F0BAFF53
:100F70000824C725A02000224021C00500F0B2FFB0
:100F80006BB20122002B00DB0022A0202021C00533
:100F900000F0A8FFA020013C012240216D00C00507
:100FA000E4B200F09FFFEDB2002CE3D1A0200122BB
:100FB0008021C00500F096FFA02000228021C005FE
:100FC00000F090FF00220121614800F08BFF08240F
:100FD0002025A02000224021C00500F083FF6BB235
:100FE0000122002B00DB0022A0202021C00500F000
:100FF00079FFA020013C012240216D00C005E4B230
:1010000000F070FFEDB2002CE3D1A020012280217E
:10101000C00500F067FFA02000228021C00500F07D
:1010200061FF002201214A4800F05CFF0824FF25EF
:10103000A02000224021C00500F054FF6BB2012225
:10104000002B00DB0022A0202021C00500F04AFF79
:10105000A020013C012240216D00C005E4B200F057
:1010600041FFEDB2002CE3D1A02001228021C00578
:1010700000F038FF03B00CBC90469946F0BDC8257F
:101080006D0005E00A20013D00F02CFD002D07D089
:101090008021A0204900C00500F01EFF0028F1D1EA
:1010A000A02000228021C00500F01CFF00220121A9
:1010B000274800F017FF08252426A0200022402101
:1010C000C00500F00FFF73B20122002B00DB0022ED
:1010D000A0202021C00500F005FFA020013D012235
:1010E00040217600C005EDB200F0FCFEF6B2002D06
:1010F000E3D101220121164800F0F4FE154BE71858
:1011000019239846A04408252678A02000224021D3
:10111000C00500F0E7FE73B20122002B00DB0022C5
:10112000A0202021C00500F0DDFEA020013D01220D
:1011300040217600C005EDB200F0D4FEF6B2002DDD
:10114000E3D101344445DED1A742D9D1C6E6C04639
:10115000000400508813000070B5254C2378012B43
:1011600000D070BD234D0020290000F069FCAB7851
:10117000012B02D000232370F3E71F4D002029002C
:1011800000F06EFC2B8801339BB22B80032B10D018
:10119000C82B12D0194D1A4B2A689A42EAD1002363
:1011A000012118482B60FFF781FD174800F09AFCD9
:1011B000E0E70022114B1A60DCE7A02001220421A5
:1011C000C00500F08FFE0D4D0E492B6800229C4695
:1011D00000206144C82300F01BFCA0202B680022E3
:1011E000C8330421C0052B6000F07CFED3E7C04665
:1011F00044140020481400204E14002058140020ED
:101200008813000038000020B80B000070B531488A
:1012100002F086FD304802F083FD304802F080FD88
:10122000002000F087FB0028FAD12D4D290000F0A6
:10123000F7FB2B782B4C002B26D00021002000F050
:10124000CFFB002000F0F4FB274802F069FD274E99
:101250000020310000F0CCFB3378002B1DD00020A3
:1012600000F0F6FB224802F05BFD00F037FB0023A4
:101270000022190023606360002000F0A7FBB0216A
:10128000002000F093FB70BD0023002219002360B2
:101290006360002000F09AFBCFE72900002000F0F7
:1012A000BFFB2B78002B0CD00121002000F0A8FB05
:1012B0007B237B22190023606360002000F086FB03
:1012C000CDE71900002223606360002000F07EFB60
:1012D000EAE7C046944C0008C04C0008EC4C0008FB
:1012E0004614002050140020184D0008451400201A
:1012F0006C4D000810B5FFF789FF10BD0122014BAE
:101300001A7070474414002010B58368A6209847CF
:1013100010BDC04670B50C0005691100A620220062
:10132000A84770BDF0B54E469946A023DE46574605
:1013300045465B00E0B58B4605009A4683B00192B6
:1013400080234E465B00994500D91E1CB6B233007F
:101350005A46A6200199EC68A047071E07D038001E
:1013600003B03CBC90469946A246AB46F0BD6B69C3
:101370009847804601E0002C0FD00121AB68A620E1
:1013800098476B69040098474346C01A5045F2D30A
:10139000002C02D003277F42E1E7019BB3449A1956
:1013A00093B201934B469E1BB3B29946002BC7D113
:1013B000D5E7C04610B5183000F092F910BDC04610
:1013C00030B5436A040083B0002B04D00123002011
:1013D000636203B030BD6B46DD1D2900183000F09C
:1013E0007FF902222B789343242BEFD00120404237
:1013F000EFE7C04610B582B06B460C001830D91D1F
:1014000000F0F4F9002802D16B46DB79238002B0AA
:1014100010BDC04600B583B06B46D98006331900B5
:10142000183000F0EFF903B000BDC04610B58C04D1
:1014300003D50469A620A04710BD0469AE20A047CB
:10144000FAE7C046F8B5050088041AD4EC68AE2067
:10145000A047041E13D16B699847A02706007F00A0
:1014600001E0002C0BD00121AB68AE2098476B69DE
:1014700004009847801BB842F3D3002C06D120000B
:10148000F8BDEC68A620A0470400F8E703246442F6
:10149000F5E7C04610B5002817D04A680B684260CF
:1014A000CA680360C2600A6902618A6882604A6928
:1014B00000624261064AC261064A8261002B04D082
:1014C0009847431E9841404210BD01204042FBE72F
:1014D0002D14000845140008F0B54546DE46574671
:1014E0004E468846E0B5934605009A4683B0802371
:1014F0005B009A4516D85246013B13409946D3B239
:1015000001934B4642465946AE20EC68A0470090F6
:1015100000280BD0009803B03CBC90469946A246E8
:10152000AB46F0BD002399460193EAE76B69984703
:10153000A0260700760001E0002C0FD00121AB6847
:10154000A62098476B6904009847C01BB042F3D3AC
:10155000002C03D003235B420093DBE7019B4A4648
:101560009C465B464B449BB29B4653469B1A9BB2A0
:101570009A46E044002BBAD1CCE7C04670B588B09B
:1015800003AC0E0E6672160E66730E0CA672160C67
:10159000A6730E0A13BAE6722274160A092590225F
:1015A000257204930DBA2173112321001201E673F1
:1015B0000395FFF791FF08B070BDC04600B583B03A
:1015C0006B46D97107331900183000F027F903B0C2
:1015D00000BDC04610B582B06B460C001830D91D56
:1015E00000F08AF8002805D16B46DB79002B03D088
:1015F0000123237002B010BD2070FBE700B583B05B
:101600006B46D97107331900183000F089F803B020
:1016100000BDC04670B50C00802149008A4208D840
:10162000054905698C46624491B2A6202200A8476C
:1016300070BD01204042FBE70820000010B582B0D9
:101640006B460C001830D91D00F032F9002805D186
:101650006B46DB79002B03D00123237002B010BD51
:101660002070FBE700B583B06B46D91D012318300D
:101670000B7000F0F7F803B000BDC04610B582B0A3
:101680006B460C001830D91D00F0A2F8002813D1C9
:1016900001226B461100DB7919402170591011406D
:1016A000617099101140A17019111140E170591128
:1016B0000A409B092271637102B010BD00B583B06E
:1016C0006B46D91D012318300B7000F05BF803B096
:1016D00000BDC04610B5183000F046F810BDC04639
:1016E000030010B50A005C68172101238068A04739
:1016F000431E9841404210BD030070B50A000C0023
:101700005D680D2101238068A847002804D10123CA
:1017100022781340237070BD01204042FBE7C04691
:1017200070B582B004006A460D0001230D21806867
:1017300066680732B047002813D16A460121D27982
:101740002B788A430B4013436A46A068D371246800
:10175000012307320C31A047431E9841404202B09A
:1017600070BD01204042FAE7030010B50A005C6832
:10177000034901238068A047431E9841404210BDA1
:101780000720000070B582B004006A460D000123F6
:101790000E49806866680732B047002813D16A4650
:1017A0000121D2792B788A430B4013436A46A06803
:1017B000D3712468012305490732A047431E98418D
:1017C000404202B070BD01204042FAE7062000000E
:1017D000030010B50A005C68034901238068A04734
:1017E000431E9841404210BD06200000030010B582
:1017F0000A005C68002101238068A047431E9841CD
:10180000404210BD030010B50A001C6800210123EE
:101810008068A047431E9841404210BD70B582B019
:1018200004006A460D0001230221806866680732C1
:10183000B047002813D16A460121D2792B788A4318
:101840000B4013436A46A068D37124680123073212
:101850000131A047431E9841404202B070BD0120B3
:101860004042FAE770B582B004006A460D000123D9
:101870000E49806866680732B047002813D16A466F
:101880000121D2792B788A430B4013436A46A06822
:10189000D3712468012305490732A047431E9841AC
:1018A000404202B070BD01204042FAE70220000031
:1018B000030070B50A000C005D68806801230649CA
:1018C000A847002804D1012322781340237070BD5B
:1018D00001204042FBE7C04604200000082210B56A
:1018E000104B86B0A020009201930223002269468B
:1018F000C0050292039300F05BF90B4C0B492000EA
:1019000002F0B0F800212000094A02F0A3F80022FA
:101910000021062000F0F6F8062000F025F900204E
:1019200006B010BD000011103000002003000006BA
:10193000FD12000830B5144B87B00093134B144CC4
:101940000193144B69460293134B20000493134BED
:101950000393134B0593FFF79DFD002810D1114B06
:10196000114D2B601B68002B05D0200098470028E4
:1019700001D107B030BD002301202B604042F8E7C1
:1019800001204042F5E7C0460D380008C536000882
:101990005C1400201137000879370008353700083B
:1019A000D91A00081400002084140020054B10B53B
:1019B0001B681B69002B02D00348984710BD01200B
:1019C0004042FBE7841400205C14002000B503486B
:1019D00083B0FFF7D3FD03B000BDC0465C14002008
:1019E00010B50248FFF7EAFD10BDC0465C140020A8
:1019F00010B50248FFF7EEFD10BDC0465C14002094
:101A000010B50248FFF7FAFD10BDC0465C14002077
:101A100010B50248FFF7FEFD10BDC0465C14002063
:101A200010B50248FFF70AFE10BDC0465C14002046
:101A300010B50248FFF716FE10BDC0465C1400202A
:101A400010B50248FFF71AFE10BDC0465C14002016
:101A500010B50248FFF732FE10BDC0465C140020EE
:101A600010B50248FFF736FE10BDC0465C140020DA
:101A7000FA210A4B10B5890004001868FEF744FBF0
:101A800000F07CF80123002801D0180010BD0022CE
:101A90002100013800F036F80023F6E7C0130020DB
:101AA0004021084A10B5136800200B431360FFF76C
:101AB000DFFF041E02D00124200010BD01F0ECFF66
:101AC000FAE7C04600200240024A1368013313605F
:101AD0007047C04688140020014B18687047C04604
:101AE0008814002070B50400FFF7F6FF631C5A1E2F
:101AF00093410500E418FFF7EFFF401BA042FAD323
:101B000070BDC04670B5002814DB154B03229C46FF
:101B1000FF23840810401A00C026C00089018240BB
:101B20000B408340A4006444B600A55995432B4361
:101B3000A35170BD0B4A032494460F23FF22034098
:101B400020401400C000890184400A408240083BC4
:101B50009B089B006344DD69A5432A43DA61E8E7FB
:101B600000E100E000ED00E01F2318401E3B834031
:101B7000014A13607047C04600E100E08022431E26
:101B80005204012093420ED2C021074A07485360F5
:101B9000036A09061B021B0A0B4303620023002091
:101BA000936007331360704710E000E000ED00E041
:101BB000F0B54546DE4657464E46E0B50D68002373
:101BC00083B0002D00D17FE0012291466F4A009141
:101BD00090464A462E009A401640019615426FD014
:101BE0000099102649680C00B443022C00D172E021
:101BF000013C012C00D888E003245A00944094460C
:101C0000E443026866462240924603220A40B240FC
:101C10005646324366460260C2681440009A926893
:101C2000B240144380225205C460114248D04E464F
:101C3000574C626B324362630326564C9A08A446A3
:101C40001E40B60092006244B4460F266746BE406E
:101C50009468B443A026F605B04215D04E4EB0426B
:101C600000D18FE04D4EB2460226504509D04C4E71
:101C7000B04200D182E04B4EB2460526504500D01E
:101C800006266746BE40344394604246019C126873
:101C9000E443CE035AD446462240326072688E0333
:101CA0005BD4464622407260B268CE025CD446469F
:101CB0002240B260F26889025DD422404146CA6087
:101CC0002A000133DA4084D103B03CBC90469946E7
:101CD000A246AB46F0BDDC08A4000419266AB24651
:101CE00007261E40B600B4460F266746BE40B346E0
:101CF00056465F46BE436746B246009E3669BE40C2
:101D0000B446564667463E4326628468A2465C0057
:101D1000A44603246646B440A34656465F46BE43E7
:101D20006746B346009EE443F668BE40B2465E4650
:101D300057463E43866046689643B2464E460A0979
:101D400032409A405646324342605AE7019E32433F
:101D50004646326072688E03A3D5019E32434646E2
:101D60007260B268CE02A2D5019E32434646B2608E
:101D7000F2688902A1D501990A439FE70326BE4074
:101D8000344381E74E46BE4034437DE700040140C2
:101D90000010024000000140000400500008005004
:101DA000000C0050001C0050F0B5DE4657464E4671
:101DB0004546E0B5002383B0002969D0012294464E
:101DC000023290460C32914625E03D4FB84266D033
:101DD0003C4FB84267D03C4FB84268D03B4FB84206
:101DE00069D00627A7403C00A64210D15646946809
:101DF000B4439460364C2268AA4322606268AA43C6
:101E00006260A268AA43A260E268AA43E2600A0094
:101E10000133DA403CD062460D009A401540114231
:101E2000F5D047465E00B74004683E003C4304607E
:101E3000DC08A400071901973F6ABA4607271F402C
:101E4000BF00BB464F465C46A740BB4657465C4674
:101E5000A7433C00019F3C6284684F46B4438460C2
:101E60004468944344601B4CC268A24644461C40EC
:101E7000A400A740B243C2609A08920052449668F8
:101E8000BA463E40A027FF05B8429ED10024ABE7EA
:101E900003B03CBC90469946A246AB46F0BD6746AF
:101EA000A7403C00A0E70227A7403C009CE747462C
:101EB000A7403C0098E70527A7403C0094E7C046B0
:101EC0000004005000080050000C0050001C00509E
:101ED000000401400000014000690840411E8841A3
:101EE000C0B27047002A01D0816170478162FCE76F
:101EF0001023F0B5C64604000D00160002279846D0
:101F000000B523686A1C31D1022110209A69114260
:101F10002AD19A691042F9D020219A691142FCD045
:101F20001022DA611032DA619A69920701D5002233
:101F30009A62012299690A4202D199690A439A6117
:101F40005A681B490A405A600422636C1343636455
:101F500041231C32E254002301202232A354023ACE
:101F6000A35404BC9046F0BD0020FAE79A691742DA
:101F7000FAD141469A6911420DD0202707E0FFF7B8
:101F8000ABFD801B85420DD3002D0BD023689969D2
:101F90000F42F4D0C4E7FFF79FFD801BA84201D891
:101FA000002DAED12022636C134363644123D1E73B
:101FB00000E800FEF0B5C64604000D00160000B5AE
:101FC00000294CD010232027984623689A6917428D
:101FD00054D141469A6911422AD020276A1C32D135
:101FE00020219A691142FCD01022DA611032DA61A4
:101FF0009A69920701D500229A62012299690A42E0
:1020000002D199690A439A615A681D490A405A6087
:102010000422636C1343636441231C32E2540023A3
:1020200001202232A354023AA35404BC9046F0BDCE
:10203000FFF752FD801B8542C7D22022636C1343F9
:1020400063644123EAE79A691742CDD1FFF744FD63
:10205000801B8542F1D3002DEFD02368BEE70368D3
:102060009A6992060AD49A69D206B6D4FFF734FD6B
:102070002022636C134363644123CFE70020D4E73D
:1020800000E800FE7047C04610B5041E4DD0412345
:10209000C35CDAB2002B43D0412324220121E25455
:1020A00023681A688A431A606168214A0A401A61E3
:1020B0009A6820490A409A60E268012A2AD084215D
:1020C000A068090201439960022A02D1802212010C
:1020D0005A605968184A00200A435A60DA6815495C
:1020E0000A40DA60616922690A43A16909020A4368
:1020F000DA60216AE2690A4301211A601A680A4318
:102100001A60002341221F316364A154013223630A
:10211000A35410BD8022A16812020A439A60D8E736
:102120004033C254FFF7AEFFB6E70120F1E7C046E7
:10213000FFFFFFF0FF7FFFFF008000027047C046F7
:1021400070B5041E13D04125242301214355026894
:1021500013688B431360FFF7F1FF00234222002036
:10216000636463552363A354023AA35470BD0120F2
:10217000FCE7C046F8B54546DE4657464E46E0B554
:1021800098460AAB914604CB04001B880D009B4681
:102190004123C35C9246202B00D0A0E0002A00D14E
:1021A00093E05B46002B00D18FE04023C25C012A04
:1021B00000D194E00122C254FFF78EFC8027060074
:1021C0003F0205E0FFF788FC801B192800D988E052
:1021D00022689369190039403B42F3D14123212001
:1021E000E05401331F30E054534663625B46616440
:1021F0006385536861637349AD050B404146C9B2BD
:1022000009040B43AD0D70492B430B435360200071
:1022100032000C99FFF76CFE002800D091E0434695
:10222000012B00D081E04B462168DFB28F6280270E
:102230000C9B013362D180228B691A42FCD0638DE2
:10224000FF2B68D8638D61484A689BB223850240A2
:10225000DBB22A431B0413438022920413434B60D6
:102260005A4B8027984603E0638D002B00D189E00C
:10227000320020000C99FFF73BFE00283CD1636A36
:1022800022681978013391626362638D013B9BB2CE
:102290006385238D618D013B9BB223850029E3D0AB
:1022A000002BE1D10C9B013350D193691F42FCD02C
:1022B000638DFF2B57D9FF234146238553680B407D
:1022C00043492B430B435360CEE7802301209B00FF
:1022D00063643CBC90469946A246AB46F8BD0220DA
:1022E000F7E72022636C134363644123E254002325
:1022F0002232A354023AA3540120EAE78B691F4219
:102300009DD1FFF7E9FB0C9B801B83424FD3002B31
:102310004DD021688CE7FF232C4A23854B6813405E
:102320002B4A2B4313434B609AE74A462368120A11
:102330009A62200032000C99FFF7DAFD002800D1E4
:1023400071E7402300220120E254C2E793691F4253
:10235000AED1FFF7C1FB0C9B801B8342C1D3002B86
:10236000BFD022689EE74046638D51689BB22385AB
:102370000140DBB229431B040B43802189040B433A
:10238000536071E7320020000C99FFF713FE00281C
:10239000B2D1202123680F4DD9615A682A405A6072
:1023A0004123E1540133E054023BE05491E7202201
:1023B000636C134363644123E25400220133E2540B
:1023C000BFE7C046009800FC00200081009C00FC94
:1023D0000000FF0100E800FEF0B54546DE46574626
:1023E0004E46E0B583B098460CAB019204CB040096
:1023F0001B8889469B464123C35C92460E9D202B39
:1024000000D0A5E0002A00D197E05B46002B00D168
:1024100093E04023C25C012A00D199E00122C2541A
:10242000FFF75AFB80260700360204E0FFF754FB53
:10243000C01B192874D822689369190031403342AF
:10244000F4D141232220E05401331E30E05453469E
:1024500061646163494663625B468E056385B10DC5
:10246000536889467A4920000B404146C9B20904A5
:102470000B4349460B4377490B43536029003A000D
:10248000FFF736FD002800D0CCE04346012B00D0FA
:102490007EE06A46236812799A6240266A1C00D060
:1024A000AAE040219A691142FCD0628DFF2A00D82F
:1024B000BDE0FF22664922855A680A4049460A4320
:1024C00065490A435A600422802690466A1C1CD142
:1024D00041469A691142FBD05B6A626A1370628D51
:1024E000636A013A013392B26362238D6285013BD4
:1024F000628D9BB22385002A01D0002B34D0638DDE
:10250000002B54D023686A1CE2D041469A691142DC
:10251000E2D1FFF7E1FAC01B854201D3002DF1D1D2
:102520002022636C0120134363644123E25400239F
:102530002232A354023AA35403E0802301209B00DB
:10254000636403B03CBC90469946A246AB46F0BDDE
:102550000220F6E793691E420CD1FFF7BDFAC01BBB
:102560008542DDD3002DDBD022686B1CF2D193694C
:102570001E42FCD0638DFF2B2ED9FF2337492385C4
:1025800053680B4049460B4335490B435360B6E74C
:10259000019E2368320A9A6229003A002000FFF760
:1025A000A7FC00283ED12368F2B29A6275E73A0090
:1025B00029002000FFF7FEFC002847D120212368D6
:1025C000284DD9615A682A405A604123E1540133A9
:1025D000E054023BE054B4E7638D204851689BB25D
:1025E000014048462385DBB201431B040B43802195
:1025F00089040B43536082E79A69164200D054E77E
:10260000FFF76AFAC01B854203D3002D01D023686F
:1026100044E72022636C134363644123E2540022A5
:102620000133E254402300220120E25489E7628D05
:102630000748596892B2014048462285D2B2014308
:1026400012040A4308490A435A603CE7012078E72C
:10265000009800FC002000800024FF81009C00FC0A
:102660000000FF0100E800FE00240082F0B557469C
:102670004546DE464E46E0B51D0000239246412207
:1026800083B00193835C0400202B57D10368802022
:102690009E6900023700074006424FD14020265C69
:1026A000012E4BD00126890526541C38A0548A0DD2
:1026B0009146A0224946920111438B466764E26825
:1026C000012A63D05A4692B25A60FFF705FA2022D7
:1026D00023680600996998690A40102101400A435D
:1026E00009D16A1C3ED11027202099699A690140BE
:1026F0003A400A43F9D09A692027D20600D472E002
:102700006A1C23D120219A691142FCD01022DA617F
:102710001032DA61019A52453FD0019A013201929A
:10272000019A5245CBD320224123E254636C01200D
:102730001343636400224023E25400E0022003B00C
:102740003CBC90469946A246AB46F0BD9A691742FA
:10275000DCD1FFF7C1F9801B854253D3002D51D046
:102760002368CDE7002D15D020231027984607E0D9
:10277000404623689A699969024039400A43BAD1B0
:10278000FFF7AAF9801B8542F2D2CCE74946244ADA
:102790000A4399E7FFF7A0F9C5E780222027596887
:1027A000D2010A435A606A1C06D120219A6911425B
:1027B000FCD02022DA61B0E79A691742F9D1FFF71D
:1027C0008BF9801B85421DD3002D1BD02368EAE7BF
:1027D0009A6917420DD1FFF77FF9801B854211D30B
:1027E000002D0FD023686A1CF2D120219A69114272
:1027F000FCD02022DA614123E2540022013B002078
:10280000E2549CE72022636C01201343636441235C
:10281000E25400232232A354023AA3548FE7C04665
:10282000002000024123C05CC0B27047406C70477A
:10283000F0B54125435D0A00DEB2202B1BD14027B5
:10284000C35D012B17D0012124238C464355036817
:102850001C688C431C601C6808490C401C6019688B
:102860001143196061461A680A431A6000234655ED
:10287000C3550020F0BD0220FCE7C046FFEFFFFF7C
:10288000F0B54125435DDEB2202B1AD14027C35D50
:10289000012B16D024234355233B9C460468090290
:1028A00022689A4322602268074B1A40114362460D
:1028B000216023681343236000234655C35500203D
:1028C000F0BD0220FCE7C046FFF0FFFF0C23244AC6
:1028D00010B5D1680B40082B0BD00C2B14D0042B57
:1028E00009D08020536800021B045B0F013398401D
:1028F00010BD1C48FCE710681B4BC006C0171840F1
:102900001A4B9C466044F3E78B0219481B0FC45CCA
:102910000902D368890F0131DB030CD41368DB068D
:1029200013D563011B1B9801C01AC00000190002D7
:10293000FDF7EAFBDCE76001001B8301181AC00009
:1029400000194002FDF7E0FBD2E763011B1B980171
:10295000C01AC00000198002FDF7D6FBC8E7C046C8
:102960000010024000127A0000E548FF0024F40045
:10297000FC4D0008F0B5D6464F464646C0B50400AB
:1029800082B0002800D122E1CB4B0C25DA68DE684A
:1029900080235B021E4003681540DA0733D5082DFB
:1029A00000D10BE10C2D00D105E1802061684002CF
:1029B000814200D13CE1A022D202914200D101E249
:1029C000BD4FBE4B3A681A403A603B68BC4A034070
:1029D0000193019B3B6813403B60002900D02BE131
:1029E000FFF77AF880239B028046994606E0FFF7BE
:1029F00073F84346C01A642800D9A1E14A463B68EF
:102A00001342F4D123689A0727D5E368042D00D137
:102A10002AE10C2D00D124E1A74E002B00D1A6E124
:102A2000092132688A4313433360FFF755F80423C2
:102A30000700984605E0FFF74FF8C01B022800D9B1
:102A40007EE1424633681A42F5D0726823699D4997
:102A50001B020A40134373602368DA062BD5002D4E
:102A600000D1BBE0A369944E002B00D194E18023F8
:102A700032685B0013433360FFF72EF880239B001E
:102A80000700984605E0FFF727F8C01B022800D989
:102A900056E1424633681342F5D073688A4A1340C0
:102AA000226A134373607268E36912021B06120AFA
:102AB0001343736023681A0719D563697E4E002B90
:102AC00000D13FE10122336D13433365FFF704F872
:102AD00002230700984605E0FEF7FEFFC01B022810
:102AE00000D92DE14246336D1A42F5D023685B07C9
:102AF00042D580230020704A5B05916B82461942C3
:102B000004D1916B0B43936301239A4680276F4E48
:102B10007F0033683B4200D102E18022A36852006B
:102B2000934200D191E1002B00D1DDE0A021C9004A
:102B30008B4200D1ABE1604B65491A6D0A401A65C2
:102B40001A6D64490A401A65FEF7C6FF80275A4B82
:102B500006009846604BBF00994605E0FEF7BCFFB3
:102B6000801B484500D9EBE043461B6D3B42F5D046
:102B70005346012B00D162E1636A002B19D00C2D62
:102B800000D167E1022B00D126E14B4C534A236868
:102B9000802613402360FEF79FFFB604050005E082
:102BA000FEF79AFF401B022800D9C9E02368334290
:102BB000F6D100200CE0002E00D1F6E63E4A126865
:102BC000920300D41FE76268002A00D01BE70120AF
:102BD00002B01CBC90469946A246F0BD364B1B681D
:102BE0009B0502D5A369002BF1D0334A36485168C2
:102BF000236A0140194351605068E1690002000AEC
:102C0000090601435160D16880225B0B0133120237
:102C10009A4013000A063249120F8A5C0020D34002
:102C2000304A1360FEF724FF0028D1D1236842E721
:102C3000214A13680B431360FEF74EFF1E4B07003B
:102C4000994680239B02984604E0FEF745FFC01B8F
:102C5000642875D84B4642461B681342F5D023685A
:102C6000D1E6002E00D0D7E6134A1268520701D5EC
:102C7000002BACD0104E226971681248120201403C
:102C80000A430921726032688A4313433360FFF7B5
:102C90001DFEF368124A1B061B0FD35CD840114B74
:102CA00018600020FEF7E4FE002891D12368DA06C0
:102CB00000D400E7D3E6C04600100240FFFFFEFF4D
:102CC000FFFFFBFFFFE0FFFFFF1FFFFF0070004063
:102CD000FFFEFFFFFFFBFFFF88130000FFFFFFFE6B
:102CE000E44D0008C01300206E4E6F4A336D134050
:102CF0003365336D6D4A13403365FEF7EDFE802377
:102D00009B0098466A4B0700994604E0FEF7E4FEF4
:102D1000C01B484514D84246336D1342F6D127E70D
:102D200033683B433360FEF7D7FE804633683B424F
:102D300000D0F2E6FEF7D0FE4346C01A6428F5D96B
:102D4000032045E70122336D93433365FEF7C4FE4C
:102D500002230700984604E0FEF7BEFEC01B0228CF
:102D6000EED84246336D1A42F6D12368BFE60122FF
:102D7000336893433360FEF7AFFE042307009846A1
:102D800004E0FEF7A9FEC01B0228D9D842463368EA
:102D90001A42F6D123688AE73368434A1340336006
:102DA000FEF79AFE80239B000700984604E0FEF79A
:102DB00093FEC01B0228C3D8424633681342F6D1A3
:102DC000236878E68023374ADB0211680B431360DF
:102DD0001368034313602FE7324D364A2B68802770
:102DE00013402B60FEF778FEBF04060004E0FEF7F8
:102DF00073FE801B0228A3D82B683B42F7D1E16AFF
:102E0000A36AEA680B432C49264E0A401343226BFF
:102E10001343EB6080232A685B0413432B60FEF7A7
:102E20005BFE80250400AD0404E0FEF755FE001BA8
:102E3000022885D833682B42F7D00020C8E6194A0B
:102E40001E49936B0B40936396E6164A116D0B4334
:102E5000136579E6012B00D1B9E68022114BA16AF6
:102E6000DB68520201201A408A4200D0B0E6F0220C
:102E7000E16A92031A408A4200D0A9E6C020000409
:102E80000340206B181A431E9841C0B2A0E6054BC0
:102E90000139186DFF3901431965196D0A431A6527
:102EA00052E6C04600100240FFFEFFFFFFFBFFFF9F
:102EB00088130000FFFFFFFEFFFF02FFFFFFFFEF91
:102EC000F8B5CE46474604000D0080B500280DD069
:102ED000012258490B681340AB420CD20B68934354
:102EE0002B430B600B681A40AA4204D001200CBC93
:102EF00090469946F8BD23689A0706D5F0204E49BA
:102F0000CA688243A0680243CA60DB0728D54A4BDF
:102F100062681B68022A55D0032A50D0012A66D065
:102F20009B05E3D50321444EF3688B431343F360C1
:102F3000FEF7D2FD63680700022B48D0032B59D05F
:102F4000012B67D00C2398463C4B994604E0FEF7D2
:102F5000C3FDC01B484538D84246F3681A42F6D133
:102F60000121344A13680B40AB4205D913688B43E7
:102F7000136013681942B9D123685A0706D52E4940
:102F80002F48CA680240E0680243CA601B0707D5A1
:102F900029492369CA682B48DB0002401343CB60F0
:102FA000FFF794FC244B284ADB681B061B0FD35CFD
:102FB000D840264B18600020FEF75AFD97E79B018A
:102FC000B0D493E79B03ADD490E703208FE70A3397
:102FD00098461A4B994604E0FEF77EFDC01B484513
:102FE000F3D84246F3681340082BF5D1B8E75B07E6
:102FF00098D47BE709339846104B994604E0FEF7D6
:103000006BFDC01B4845E0D84246F36813400C2BCB
:10301000F5D1A5E70B339846084B994604E0FEF737
:103020005BFDC01B4845D0D84246F3681340042BD3
:10303000F5D195E7002002400010024088130000FF
:10304000FFF8FFFFFFC7FFFFE44D0008C01300209B
:10305000044B054ADB685B055B0FD35C034A1068D1
:10306000D840704700100240F44D0008C013002003
:10307000044B054ADB689B045B0FD35C034A106872
:10308000D840704700100240F44D0008C0130020E3
:10309000F8B5CE4647460368040080B59A062DD59C
:1030A00080236A4A5B05916B0027194258D080261D
:1030B000674D76002B6833425CD06568C0222800DB
:1030C000624992030B6810401340984200D197E088
:1030D000C0232A009B021A409A425CD0086D01006E
:1030E000194018425FD123685848016D0A430265B0
:1030F000012F03D1826B57490A408263DA0706D554
:1031000003205249CA6C8243A0680243CA649A07EA
:1031100006D50C204D49CA6C8243E0680243CA645C
:103120005A0706D549494C48CA6C024020690243F7
:10313000CA641A0706D545494848CA6C0240606906
:103140000243CA6400201B0606D5404A4449D36C9A
:103150000B40A1690B43D3640CBC90469946F8BD63
:103160008026916B3A4D0B4393632B6876000137B1
:103170003342A2D12B6833432B60FEF7ADFC80466F
:103180002B68334299D1FEF7A7FC4346C01A642846
:10319000F6D90320E0E70B689B0354D40B6D1900AC
:1031A000114013424DD02368914218D0990616D58C
:1031B000264E316D8C4660462A490140306D894665
:1031C000804680204146000308433065306D264923
:1031D00008404946306531656146C90519D4C021AA
:1031E00089028A4200D07FE7C02080032840174927
:1031F0001E4D0A682A4002430A60C022920273E709
:103200000B6DC022190092021140134216D02A40C1
:10321000C9E7FEF761FC80239B009846144B05002C
:10322000994604E0FEF758FC401B4845B1D8424699
:10323000336D1342F6D0C0226568920223682A409B
:10324000CDE72368D3E7012086E7C046001002409F
:1032500000700040FFFFFFEFFFF3FFFFFFCFFFFF16
:10326000FFFFF3FFFFFFFCFFFFFFF7FFFFFFCFFFB5
:1032700088130000436A30B5DA0706D50168284C88
:103280004A682240846A22434A609A0706D5016848
:10329000244C4A682240C46A22434A605A0706D531
:1032A0000168214C4A682240046B22434A601A0795
:1032B00006D501681D4C4A682240446B22434A608F
:1032C000DA0606D501681A4C8A682240846B2243CC
:1032D0008A609A0606D50168164C8A682240C46B3B
:1032E00022438A605A060AD50168134D4A68046C65
:1032F0002A4022434A6080225203944209D01B068E
:1033000006D502680D4953680B40816C0B4353602E
:1033100030BD4A680A4C2240446C22434A60EEE7C2
:10332000FFFFFDFFFFFFFEFFFFFFFBFFFF7FFFFF34
:10333000FFEFFFFFFFDFFFFFFFFFEFFFFFFFF7FFE5
:10334000FFFF9FFFF0B50023C646040000B5C3672A
:10335000FEF7C2FB236805001A6812070CD41A682E
:1033600052072AD42023002200206367A36750332A
:10337000E25404BC9046F0BD80268027B603BF040B
:10338000DA691100314088463242E8D1FEF7A4FBE9
:103390002368401BB842F3D31A68104903200A403F
:1033A0001A609A68A331FF318A439A60202342460B
:1033B0006367A3675033E254DBE780268027F60378
:1033C000BF04DB691A00324090463342CAD1FEF78F
:1033D00083FB2368401BB842F3D3DDE75FFEFFFFAA
:1033E000F8B5041E30D0436F002B44D024230121B4
:1033F0006367236825691A688A431A60A268186897
:103400002A436569E1692A439A4D0A4328400243E9
:103410001A605A6898480240E068024397485A6028
:10342000A26983422CD0256A98682A43944D28408B
:1034300002439A60934A934208D0934A934200D140
:10344000CAE00023236663660120F8BD8F4BDA6C67
:1034500003231340013B022B00D989E08C4AD55C41
:1034600080231B02994200D192E0082DE9D8894BB4
:10347000AD005B599F467022835400F0C3FBB5E753
:1034800099687F4801400A439A60C02280217F48A2
:103490001201C36C090113408B4200D1D5E00DD855
:1034A000002B00D1CEE08022D2009342C9D1FFF799
:1034B0000DFA002806D12066606637E09342C0D13D
:1034C0008020000265686B005B198342B9D82B032A
:1034D0009842B6D80027030E02026E0892197B416B
:1034E000100019002A000023FCF79AFE6A4BC2184C
:1034F0006A4B9A42A5D82368D8602766676615E0AC
:103500006368580880231B029C4660446168FCF78E
:10351000FBFD0004000C0300614A103B934200D9FC
:103520008FE72368D860002323666366636A002BF5
:103530004ED123685B495A6820000A402A215A600C
:103540009A688A439A601A6829390A431A60FFF711
:10355000F9FE7AE7FFF7BAF963685B081818D5E750
:103560004A4B1B68DB067CD5636858084E4BCBE79B
:1035700080231B0299425ED0FFF77AFD63685B08E7
:103580001818C3E7FFF764FD63685B081818BDE708
:10359000082D03D8454AAB00D3589F46012500208B
:1035A00003003F4A103B934200D94AE70F23020031
:1035B0009A4313000007400F184300232268D0608D
:1035C00023666366012D00D13EE7636A002BB0D00D
:1035D0002000FFF74FFEACE72C4BDA6C0C231340B6
:1035E000334AD55C3CE76368580880235B029C46FD
:1035F00060446168FCF788FD00040025000CCFE7FB
:10360000FFF764F9636840005B08C018F1E71F4BDF
:103610001B68DB0629D563685808264BE7E7FFF7E8
:1036200017FD636840005B086168C018FCF76CFD1B
:103630000004000CB4E7FFF71BFD636840005B0863
:10364000C018D6E7FFF704FD33E7036810201840E1
:1036500043425841184B40421840134B9C4660442B
:1036600030E763685808154B4EE763685808144BF9
:10367000BDE7C046F369FFEFFFCFFFFF0048004002
:10368000FFF4FFFF003801400044004000100240FA
:10369000D04D0008884D000800FDFFFFFFFC0F0023
:1036A000EFFF0000FFB7FFFF00093D00AC4D000831
:1036B000D44D000800127A00001BB7000024F4006B
:1036C0000048E8010D4A10B51368002B03D0013BF8
:1036D0001360002B01D0002010BD094A0949936BEB
:1036E00009480B409363C021FEF75EFB0748FEF7D5
:1036F00027FD0028EFD008204042EDE78C14002081
:1037000000100240FFFFDFFF000400509014002073
:1037100080230A005B01010010B50548FEF7A6FFF3
:1037200043425841434203201840033810BDC0466D
:103730009014002030B580250E4C85B06D010193AA
:10374000009202230A00029501002000FEF712FDFC
:1037500003000020002B01D105B030BD2000FFF791
:1037600065F8043843425841612340429843043885
:10377000F2E7C0469014002030B580250E4C85B08D
:103780006D010193009202230A00029501002000BE
:10379000FEF722FE03000020002B01D105B030BD52
:1037A0002000FFF743F80438431E9841612340424C
:1037B00098430438F2E7C04690140020114B70B5CE
:1037C0000360114B012243600023C26083600361E8
:1037D00043618361C36103620400FEF755FC00216D
:1037E00005002000FFF724F80543EDB2681E85416F
:1037F00000212000EDB2FFF743F8002800D001259A
:10380000280070BD005400401A06100030B51E4B51
:103810001E4A1F4C89B023601368591C1160002B8D
:1038200002D0002009B030BD2000FEF7FBFF0028C9
:10383000F7D10223174D1848EA6A02A91A43EA622F
:10384000EA6A13400193C022019B12230292039360
:10385000012203230492059301230693FEF7A8F99E
:103860008023AA6B9B0313432000AB63FFF7A6FFE3
:10387000002805D100212000FEF7DAFF0028D0D073
:1038800008204042CEE7C046005400408C1400207F
:10389000901400200010024000040050F0B5C6460D
:1038A00000B58AB01422002104A800F031FA0422E5
:1038B0003B4BA025D96AED051143D962D96A28008E
:1038C0000A400192019A0122D96A00241143D96267
:1038D000D96A00260A400292029A0222D96A002777
:1038E0001143D962DB6AF4211A4003920022039B40
:1038F000FEF7F8FA2B4B0022180003219846FEF73A
:10390000F1FAC0220323120204A927480492059366
:103910000694FEF74DF90323244A280004A90492D3
:1039200005930694FEF744F9F4220123280004A924
:103930000492059306960797FEF73AF908221C4B66
:10394000280004A9049205930694FEF731F9032296
:103950000123404604A90492059306960797FEF7B3
:1039600027F9802200232800520004A9049205931D
:103970000694FEF71DF903233822404604A9049259
:1039800005930694FEF714F9002200210620FEF7A5
:10399000B9F80620FEF7E8F80AB004BC9046F0BD7E
:1039A000001002400004005000080050039800007E
:1039B0000000111010B59AB0302200210EA800F0BE
:1039C000A7F914220021684600F0A2F91C22002168
:1039D00006A800F09DF91449144A0B6800241A4007
:1039E00080231B0113430B6002230D93013B1093B3
:1039F0000DA80F3311931694FEF7BCFF0F2201237D
:103A00000092019300220023002168460292039352
:103A10000494FFF755FA092306A8069308940B941B
:103A2000FFF736FB1AB010BD00700040FFE7FFFF44
:103A300010B5FEF735F8FFF7BDFFFFF72FFF00F0D9
:103A4000C3F8FDF757FCFCF70BFDFDF785FBFCE722
:103A50007047C04603000120002901D100205A60B0
:103A60007047C046002802D0016000207047012046
:103A7000FCE7C0461F22036810B51A40012393409B
:103A8000044A51690B4204D053614368002B00D0B3
:103A9000984710BD000401400121054B5A6B0A43B1
:103AA0005A638022996B52050A439A637047C04655
:103AB000001002407047C046FEE7C0467047C0464F
:103AC0007047C04610B5FDF7FFFF10BD10B50248A6
:103AD000FFF7D0FF10BDC0463000002070B5161EA5
:103AE00007DD0C008D1800E000BF20700134AC42EF
:103AF000F9D1300070BDC04670B5161E07DD0C0050
:103B00008D182078013400E000BFAC42F9D13000BC
:103B100070BDC0460C4A0300106810B5002805D0DF
:103B20006946C3188B4207D8136010BD6946074821
:103B3000C31810608B42F7D900F0C0F80C23036063
:103B400001204042F1E7C046DC1400207815002037
:103B5000012040427047C04680239B0100204B60FB
:103B60007047C04601207047002070478022104BEC
:103B7000520019680A431A60DA680E490A40DA608E
:103B80001A680D490A4001211A609A688A439A60AE
:103B90001A680A490A401A60DA6809490A40DA6074
:103BA00000221A618022074B12059A607047C046B6
:103BB000001002400C40FF88F6FFF6FEFFFFFBFFFF
:103BC000FFFF02FF00ED00E00C480D4B10B5036055
:103BD000E1235B020C224360002342618360C360E7
:103BE00003618361C36103624362FFF7F9FB00284D
:103BF00000D110BDFFF72CFFFBE7C046E01400200A
:103C00000038014010B5040088B01422002102A839
:103C100000F07EF8124B22689A4201D008B010BD25
:103C20008022104BD201596BA0200A435A63012213
:103C3000D96AC0051143D962DB6A02A91A40019210
:103C4000C022019B0223D20002920393002203238D
:103C50000492059304230693FDF7AAFFDEE7C0460E
:103C600000380140001002400D488546002103E065
:103C70000C4B5B58435004310B480C4B42189A4292
:103C8000F6D30B4A02E0002313600432094B9A4238
:103C9000F9D3FFF76BFF00F017F8FFF7C9FEFEE757
:103CA00000200020B04E0008000000202814002052
:103CB0002814002078150020FEE70000014B18684A
:103CC0007047C046C413002070B500260C4D0D4C43
:103CD000641BA410A64209D1002600F0BFFF0A4DC4
:103CE0000A4C641BA410A64205D170BDB300EB586A
:103CF00098470136EEE7B300EB5898470136F2E7F4
:103D0000A84E0008A84E0008A84E0008AC4E0008B7
:103D100003008218934200D1704719700133F9E70C
:103D20000FB40B4B13B51C68002C05D0A369002BF6
:103D300002D1200000F070F805AB2000049AA168C1
:103D4000019300F093F916BC08BC04B01847C046B4
:103D5000C4130020002310B5040003604360836097
:103D6000818143661900C281036143618361082236
:103D70005C30FFF7CDFF054B6362054B2462A36205
:103D8000044BE362044B236310BDC04609460008A0
:103D900031460008694600089546000810B50249FA
:103DA00000F0BAF810BDC046A149000870B56825FA
:103DB0004A1E55430E002900743100F0D1F8041E4C
:103DC00008D000212A00016046600C30A0606832F3
:103DD000FFF79EFF200070BD10B5024800F0BDF84F
:103DE00010BDC0467015002010B5024800F0B6F8AE
:103DF00010BDC0467015002010B5024800F0ADF8A7
:103E000010BDC0466B15002010B5024800F0A6F8A2
:103E100010BDC0466B15002013B50400FFF7ECFF82
:103E2000A369002B02D0FFF7EFFF13BDA364E36487
:103E30002365134B134A1B68A2620193A34201D16D
:103E40000123A361200000F01FF86060200000F053
:103E50001BF8A060200000F017F800220421E060A9
:103E60006068FFF777FF01220921A068FFF772FF62
:103E700002221221E068FFF76DFF0123A361D2E760
:103E8000084E00089D3D0008F8B50700FFF7A4FFA5
:103E90001F4B1E68B369002B02D13000FFF7BCFF37
:103EA0004836B4687368013B04D53368002B22D0D0
:103EB0003668F6E70C22A55E002D1AD12000154BBE
:103EC0005830E360656600F047F8FFF78DFF20008B
:103ED000082229002560A560656025616561A561EE
:103EE0005C30FFF715FF6563A563A564E5642000FA
:103EF000F8BD6834D7E704213800FFF757FF041EE8
:103F00003060D5D1FFF770FF0C233B60EFE7C04670
:103F1000084E00080100FFFFF7B504000600002767
:103F2000019148346368A5680093009B013B0093AE
:103F300004D52468002CF5D13800FEBDAB89012BD7
:103F400008D90E22AB5E013304D029003000019B5A
:103F5000984707436835E8E77047704770470000A7
:103F6000F8B50323CD1C9D43083506000C2D1FD248
:103F70000C25A9421ED8300000F0DEFD25490A6854
:103F80001400002C1AD1244F3B68002B04D12100CF
:103F9000300000F027FB38602900300000F022FBE1
:103FA000431C2BD10C233000336000F0CDFD03E027
:103FB000002DDEDA0C2333600020F8BD23685B1B84
:103FC00019D40B2B03D92360E418256003E0636840
:103FD000A2420ED10B60300000F0B6FD2000072297
:103FE0000B30231D9043C21A9842E6D01B1AA350EF
:103FF000E3E75360EFE722006468C2E70323C41CD1
:104000009C43A042E1D0211A300000F0EBFA431C9F
:10401000DBD1C7E76015002064150020936810B558
:10402000013B9360002B04DA9469A34207DB0A2961
:1040300005D01368581C10601970080010BD00F0FE
:104040002FFB0100F9E7F8B506000F001400D518A2
:10405000AC4201D1002007E021783A003000FFF7A0
:10406000DDFF0134431CF3D1F8BD0000F0B5A1B071
:1040700006000C001F000392002804D08369002B67
:1040800001D1FFF7C9FE8E4B9C421CD17468636E50
:10409000DB0705D4A3899B0502D4A06DFFF75DFF64
:1040A000A3891B0702D52369002B1DD121003000F5
:1040B00000F060FB002817D0636EDB070DD50120F0
:1040C000404221B0F0BD7F4B9C4201D1B468DEE795
:1040D0007D4B9C42DBD1F468D9E7A3899B05EED4E4
:1040E000A06DFFF73BFFEAE7002308AD6B612033CB
:1040F0006B761033AB760797039F3B78002B01D08C
:10410000252B4ED1039BFB1A0593039B9F420DD099
:10411000059B21003000039AFFF795FF431C00D157
:10412000B5E06A69059B944663446B613B78002B5C
:1041300000D1ACE001227B1C0393002352426A6051
:1041400004A9543252182B60EB60AB601370AB655E
:10415000039B052219785D4800F0E2FC039B5F1C7D
:10416000002820D12A68D30604D5532304A95B185C
:1041700020211970130704D5532304A95B182B21A0
:104180001970039B1B782A2B16D00021EB68039F24
:104190003A78781C303A8446092A4FD9002911D13F
:1041A00017E00137A9E7494B2A68C01A0123834069
:1041B00013432B600397CBE7079B191D1B680791DF
:1041C000002B01DB0B9304E05B42EB600223134303
:1041D0002B603B782E2B0AD17B782A2B37D1079B7B
:1041E00002371A1D1B680792002B2DDB099303224F
:1041F0003978374800F094FC002807D0344B2A68FF
:10420000C01A40238340134301372B6039787B1C4D
:10421000062230480393297600F082FC002845D01E
:104220002D4B002B27D10722079B073393430833DD
:1042300007936B69049A9B186B615DE70A214B43F6
:1042400067469B180939A3E701235B42CEE70023A9
:104250001A0001376B603978781C30398446092997
:1042600003D9002BC3D00992C1E70A235A436746FA
:104270005218093BEFE707AB0093220029003000FA
:10428000164B00E000BF0490049B0133D1D1636E54
:10429000DB0705D4A3899B0502D4A06DFFF75EFE62
:1042A000A3895B0600D50AE70D980AE707AB0093E0
:1042B000220029003000094B00F082F8E3E7C046F5
:1042C0002C4E00084C4E00080C4E00086C4E0008A6
:1042D000724E0008764E00080000000047400008BB
:1042E000F7B5150001938A680B690C0000909342A2
:1042F00000DA130022002B6043321278002A01D02A
:1043000001332B6023689B0602D52B6802332B6098
:104310002268062317001F401A4227D02300433388
:104320001B785A1E93412268920630D422000199CC
:104330000098089E4332B047431C25D006232068CE
:104340002A68E16800250340042B03D18D1AEB4352
:10435000DB171D40A3682269934201DD9B1AED180B
:104360000027BD4220D1002010E00137E3682A6811
:104370009B1ABB42D2DD2200012301990098089EBE
:104380001932B047431CF0D101204042FEBD30201D
:10439000E1184331087021005A1C45310978A218F0
:1043A000433202331170C1E72200012301990098C2
:1043B000089E1A32B047431CE6D00137D1E700000F
:1043C000F0B58BB006920A00433207930590049231
:1043D0000A7E0C00109B782A06D8622A08D8002A88
:1043E00000D1C0E0582A52D026004236327022E076
:1043F000100063381528F7D8FCF728F816001F00BE
:10440000F6FFF6FFF6FFF6FF1F00F6FFF6FFF6FFDA
:10441000F6FFA80036009A00F6FFF6FFB900F6FF97
:104420003600F6FFF6FF9E0026001A684236111D80
:104430001960136833700123A7E0086819680A1D22
:1044400005060BD50D681A60002D03DA2D23049A9A
:104450006D421370614B0A27039332E00D681A60B6
:104460004106F1D52DB2EFE70D681968081D1860F7
:104470002E0601D50D6803E06D06FBD50D68ADB2C3
:10448000564B0A2703936F2A17D1082715E04531A9
:104490000A70524A03921A68216820CA1A600806F4
:1044A00050D5CB0702D52023194321601027002DBA
:1044B00003D1202322689A43226023000022433341
:1044C0001A706368A360002B03DB04222168914308
:1044D0002160002D02D1049E002B0CD0049E2800E8
:1044E0003900FBF797FE039B013E5B5C33702B00AA
:1044F00005009F42F3D9082F09D12368DB0706D5B1
:1045000063682269934202DC3023013E3370049BCE
:104510009B1B2361079B210000930598069B09AA1A
:10452000FFF7DEFE431C35D1012040420BB0F0BD49
:10453000202209680A432260220078214532117046
:10454000274AA7E74806ACD5ADB2AAE71A680D68B6
:10455000101D4969186013682E0601D5196002E024
:104560006D06FBD519800023049E2361D2E71A68EB
:10457000111D1960166800213000626800F0D0FA41
:10458000002801D0801B6060636823610023049AC7
:104590001370BFE72369320006990598079DA84765
:1045A000431CC1D023689B0715D4099BE06898423F
:1045B000BCDA1800BAE72200012306990598079E85
:1045C0001932B047431CAFD00135E368099A9B1AF2
:1045D000AB42F0DCE9E70025F7E7C0467D4E000876
:1045E0008E4E0008002370B5064D040008002B60B5
:1045F000FFF790FA431C03D12B68002B00D02360F7
:1046000070BDC0467415002070B50C000E25495FC2
:1046100000F0ECFA002803DB636D1B18636570BDC6
:10462000A389024A1340A381F9E7C046FFEFFFFFC9
:10463000F8B51F008B8905000C001600DB0505D5B9
:104640000E23C95E0022022300F0EAF9A389054A7D
:1046500028001340A38132000E23E15E3B0000F0EE
:1046600075F8F8BDFFEFFFFF70B50C000E25495F30
:1046700000F0D6F9A389421C03D1054A1340A38157
:1046800070BD802252011343A3816065F8E7C046E4
:10469000FFEFFFFF10B50E23C95E00F0E3F810BD79
:1046A000F8B505000E001400002804D08369002B23
:1046B00001D1FFF7B1FB224B9C422ED16C68A3695C
:1046C000A360A3891B0732D52369002B2FD0236851
:1046D0002269F7B2981A6369F6B2834205DC2100B9
:1046E000280000F05DF9002827D1A3680130013BC4
:1046F000A36023685A1C22601F706369834204D040
:10470000A389DB0707D50A2E05D12100280000F078
:1047100047F9002811D13000F8BD0A4B9C4201D165
:10472000AC68CCE7084B9C42C9D1EC68C7E72100D4
:10473000280000F01FF80028C9D001267642EAE7D9
:104740002C4E00084C4E00080C4E000870B50400BA
:10475000080011001A000023054D2B60FFF7CCF96B
:10476000431C03D12B68002B00D0236070BDC046D2
:1047700074150020374B70B51D6806000C00002D25
:1047800005D0AB69002B02D12800FFF745FB324B67
:104790009C420FD16C680C23E25E93B211072DD4BA
:1047A000D90611D409230120336037331343A38181
:1047B000404270BD294B9C4201D1AC68EBE7284BCD
:1047C0009C42E8D1EC68E6E75B0713D5616B0029F2
:1047D00008D023004433994202D0300000F0BCF9E5
:1047E000002363632422A3899343A381002363608E
:1047F000236923600823A2891343A3812369002B23
:104800000BD1A0218022A389890092000B40934202
:1048100003D02100300000F03FF90C22A35E0120FC
:104820001A0099B2024003420FD00022A2606269CE
:104830005242A261002022698242BAD10A06B8D54A
:1048400040221343A3810138B3E7880700D462698B
:10485000A260EFE7C41300202C4E00084C4E000865
:104860000C4E0008002370B5064D040008002B60B4
:10487000FFF76EF9431C03D12B68002B00D0236097
:1048800070BDC04674150020F7B58B8905000C007B
:104890001A075FD44A68002A04DC0A6C002A01DC8B
:1048A0000020FEBDE76A002FFAD0002280212E688A
:1048B0002A601A0049010A400B4234D0606DA38976
:1048C0005B0706D56368C01A636B002B01D0236CAD
:1048D000C01A0200216A00232800E76AB847A189AC
:1048E000431C06D12B681D2B31D82C4ADA40D30744
:1048F0002DD50023636023692360CB0405D5431CB9
:1049000002D12B68002B00D16065616B2E600029FD
:10491000C6D023004433994202D0280000F01CF98D
:1049200000206063BDE701232800216AB847431CCB
:10493000C5D12B68002BC2D01D2B01D0162B01D165
:104940002E60ADE74023A2891343A381A9E740234A
:104950000B43FAE70F69002FA2D00A680F60D21B41
:10496000019200229B0700D14A69A260019B002BA3
:1049700000DC95E73A002800019B216AA66AB0474F
:10498000002806DC40230120A28940421343A38172
:1049900087E7019B3F181B1A0193E7E701004020BE
:1049A0000B6970B505000C00002B02D10025280012
:1049B00070BD002804D08369002B01D1FFF72CFAC9
:1049C000144B9C421BD16C680C22A35E002BEDD0D3
:1049D000626ED20704D49B0502D4A06DFFF7BDFA26
:1049E00028002100FFF750FF636E0500DB07DED4CF
:1049F000A3899B05DBD4A06DFFF7B0FAD7E7064B80
:104A00009C4201D1AC68DFE7044B9C42DCD1EC68EE
:104A1000DAE7C0462C4E00084C4E00080C4E000849
:104A200070B50400080011001A000023054D2B602A
:104A3000FFF79AF8431C03D12B68002B00D02360AA
:104A400070BDC0467415002070B50E001D000E2309
:104A5000C95E140096B0002907DA00232B60B389E1
:104A60001B0611D48023DB000FE06A4600F0D2F869
:104A70000028F2DBF02301991B021940054BC918ED
:104A80004B4259412960EDE740230020236016B0D6
:104A900070BDC04600E0FFFFF7B502268B89050018
:104AA0000C00334206D023004733236023610123E7
:104AB0006361F7BD6A4601ABFFF7C6FF00990700C7
:104AC0002800FFF74DFA002808D10C22A35E9A05B2
:104AD000EFD4032293431E43A681E4E70F4BAB625E
:104AE0008023A28920601343A381009B206163611E
:104AF000019B002B0DD028000E23E15E00F09CF8F6
:104B0000002806D00322A38993431A0001231343EC
:104B1000A381A0890743A781CBE7C0469D3D00083C
:104B2000C9B28218904201D10020704703788B42AD
:104B3000FBD00130F6E7000010B50248FFF70DFA90
:104B400010BDC0466C15002010B50248FFF706FAEC
:104B500010BDC0466C15002070B50500002910D0AE
:104B60000C1F2368002B00DAE4182800FFF7E4FF8D
:104B70001D4A1368002B05D1636014602800FFF7FD
:104B8000E3FF70BDA34208D9216860188342F3D1C6
:104B900018685B6841182160EEE71A005B68002B1B
:104BA00001D0A342F9D911685018A0420BD1206856
:104BB0000918501811608342E0D118685B684118E9
:104BC00011605360DAE7A04202D90C232B60D5E7CD
:104BD00021686018834203D118685B68411821601E
:104BE00063605460CAE7C0466015002070B50400D9
:104BF000080011001A000023054D2B60FEF76EFF20
:104C0000431C03D12B68002B00D0236070BDC0462D
:104C100074150020002370B5064D04000800110033
:104C20002B60FEF799FF431C03D12B68002B00D0AB
:104C3000236070BD74150020002370B5064D04007C
:104C400008002B60FEF78EFF431C03D12B68002B5E
:104C500000D0236070BDC04674150020F8B5C04672
:104C6000F8BC08BC9E467047F8B5C046F8BC08BC06
:044C70009E467047A5
:104C74003266664466AA11800811188118118811D9
:104C84008811880000FFFFFFFF5FAFFFFF2F0000C8
:104C94002D2D2D2D2D2D2D2D2D2D2D2D2D2D2D2D40
:104CA4002D2D2D2D2D2D2D2D2D2D2D2D2D2D2D2D30
:104CB4002D2D2D2D2D2D2D2D000000000A0D2A2A1D
:104CC4002A2A2A57656C636F6D6520746F20782DCE
:104CD400637562652D6E666334206578616D706CF2
:104CE400652A2A2A2A2A00000A0D2D2D2D2D2D2D64
:104CF4002D2D2D2D2D2D2D2D2D2D2D2D2D2D2D2DE0
:104D04002D2D2D2D2D2D2D2D2D2D2D2D2D2D2D2DCF
:104D14002D2D00000A0D0A0D20546869732070724D
:104D24006F6772616D2077696C6C2073686F772090
:104D3400796F75206261736963206578616D706C49
:104D440065206F6E20686F7720746F2075736520FF
:104D5400746865206D61696C626F78206F6E20499C
:104D640032432073696465000A0D0A0D4D61696C54
:104D7400626F782069732061637469766174656415
:104D8400000000008435000878350008603500080C
:104D94004234000854350008423400084234000804
:104DA40042340008003500081E3600083636000874
:104DB4000E3600089C350008003600089C350008B3
:104DC4009C3500089C350008E635000804020800FC
:104DD4000010101004101010021010100800000031
:104DE4000000000000000000010203040607080997
:104DF4000000000001020304030406080C1018203C
:104E040030000000C8130020000000000000000073
:104E1400000000000000000000000000000000008E
:104E2400000000000000000000000000000000007E
:104E3400000000000000000000000000000000006E
:104E4400000000000000000000000000000000005E
:104E5400000000000000000000000000000000004E
:104E64000000000000000000232D302B2000686C9F
:104E74004C00656667454647003031323334353679
:104E840037383941424344454600303132333435B2
:0C4E9400363738396162636465660000DF
:084EA000C0B3FF7F0100000018
:044EA800E900000815
:044EAC00C100000839
:104EB0003A1A000001C700003B0800001101000081
:104EC0000CD7D69DC1130008B513000809130008BC
:104ED000F513000815140008151300082513000821
:104EE0000300000600000000FFFFFFFFFFFFFFFFC1
:104EF000FFFFFFFFFFFFFFFFFFFFFFFFFFFFFFFFC2
:104F0000FFFFFFFFFFFFFFFFFFFFFFFFFFFFFFFFB1
:104F1000FFFFFFFFFFFFFFFFFFFFFFFFFFFFFFFFA1
:104F2000FFFFFFFFFFFFFFFFFFFFFFFFFFFFFFFF91
:1054F000FFFFFFFFFFFFFFFFFF803FF803FFFFFFFE
:10550000FFFFFFFFFFFFFFFE007FFFFFFFFFFFFF2B
:10551000FFFF803FF801FFFFFFFFFFFFFFFFFFFFDF
:10552000FE007FFFFFFFFFFFFFFFFFC03FF801FF0F
:10553000FFFFFFFFFFFFFFFFFFFE003FFFFFFFFF3B
:10554000FFFFFFFFC01FF801FFFFFFFFFFFFFFFF8F
:10555000FFFFFF003FFFFFFFFFFFFFFFFFC01FFC3C
:1055600001FFFFFFFFFFE00FFFFFFFFF003FFFFF17
:10557000FFFFFFFFFFFFC01FFC00000000003FE037
:105580000F803FFFFF003FFFFFFFFFFFFFFFFFC058
:105590001FFC00000000003FE00F803FFFFF003FC6
:1055A000FFFFFFFFFFFFFFFFC01FFC000000000028
:1055B0003FF00F803FFFFF003FFFFFFFFFFFFFFFB8
:1055C000FFE00FFC00000000001FF00FC03FFFFFD6
:1055D000001FFFFFFFFFFFFFFFFFE00FFC000000C9
:1055E00000001FF000003FFFFF801FFFFFFFFFFFD5
:1055F000FFFFFFE00FFE00000000001FF000003F73
:10560000FFFF801FFFFFFFFFFFFFFFFFE00FFE0018
:10561000000000001FF000001FFFFF000FFFFFFF52
:10562000FFFFFFFFFFE00FFE007FE007FFFFF0003E
:10563000001000000000000FFFFFFFFFFFFBF00F56
:10564000FE007FF007FFFFF80000100000000000E0
:105650000FFFFFFFFFFFF9F007FE007FF007FFFFDE
:10566000F800001000000000000FFFFFFFFFFFF92F
:10567000F007FF007FF007FFFFF8000010000000B8
:1056800000000FFFFFFFFFFFF8F007FF007FF003B0
:10569000FFFFF8000008000000000007FFFFFFFF09
:1056A000FFF87007FF007FF003FFFFF8000008001D
:1056B0000000000007FFFFFFFFFFF87007FF003F3B
:1056C000F003FFFFFC03E008000000000007FFFFFD
:1056D000FFFFFFF83807FF003FF803FFFFFC03E080
:1056E00008000000000007FFFFFFFFFFF83803FF7E
:1056F00000000000001FFC03F0080000000000078D
:10570000FFFFFFFFFFF81803FF80000000001FFCF1
:1057100001F00FFFFFE007FFFFFFFFFFFFFFF018A3
:1057200003FF80000000001FFC01F007FFFFE007FF
:10573000FFFFFFFFFFFFFFF00803FF8000000000F6
:105740000FFC01F007FFFFE007FFFFFFFFFFFFFF78
:10575000F008039F80000000000FFE01F007FFFF2C
:10576000E007FFFFFFFFFFFFFFF804018F8000004D
:1057700000000FFE01F007FFFFE003FFFFFFFFFF48
:10578000FFFFF800010780000000000FFE00F8078F
:1057900080000000000FFFFFFFFFFFFC000103C0BF
:1057A000000000000FFE00F807C0000000000FFF1F
:1057B000FFFFFFFFFE000001C01FFC00FFFFFE0017
:1057C000F803C0000000000FFFFFFFFFFFFF000015
:1057D00000C00FFC00FFFFFE00F803C00000000047
:1057E0000FFFFFFFFFFFFF000000C00FFE00FFFFE5
:1057F000FF00F803C00000000007FFFFFFFFFFFFEE
:10580000800001C00FFE00FFFFFF00FC03C000008E
:10581000000007FFFFFFFFFFFFC00001E00FFE00D9
:10582000FFFFFF007C03E00000000007FFFFFFFF19
:10583000FFFFC00003E00FFE007FFFFF000001E05C
:105840000000000007FFFFFFFFFFFFE00007E00F81
:10585000FE007FFFFF000001E001F800FFFFFFFFF7
:10586000FFFFFFFFE0000F6007FE007FFFFF8000EB
:1058700001F001F801FFFFFFFFFFFFFFFFF0001F36
:10588000200000000003FF800001F800F800FFFF87
:10589000FFFFFFFFFFFFF8003F000000000003FFD5
:1058A000800001F800FC00FFFFFFFFFFFFFFFFF893
:1058B000007F000000000003FF800001FC007C006E
:1058C000FFFFFFFFFFFFFFFFFC007F000000000065
:1058D00003FF800000FE003C00FFFFFFFFFFFFFF13
:1058E000FFFC007F000000000001FF800000FF00BF
:1058F0001C00FFFFFFFFFFFFFFFFFE007E00000018
:10590000000001FFC00000FF001FFFFFFFFFFFFFBF
:10591000FFFFFFFE003E000000000001FFC03E0050
:10592000FF800FFFFFFFFFFFFFFFFFFF00000000F2
:105930000000000001FFC01F00FF8007FFFFFFFF06
:10594000FFFFFFFFFF0000000003FF801FFFFFC0FD
:105950001F00C000000000007FFFFFFFFFFF0000EE
:10596000000003FF801FFFFFC01F00400000000079
:10597000007FFFFFFFFFFF0000000001FF801FFF0F
:10598000FFC01F004000000000007FFFFFFFFFFF7F
:105990000000000001FFC01FFFFFE01F00400000EB
:1059A0000000007FFFFFFFFFFF8000000001FFC03D
:1059B0001FFFFFE01F806000000000007FFFFFFF6F
:1059C000FFFF8000000001FFC01FFFFFE00F8060AD
:1059D00000000000007FFFFFFFFFFF8000000001CC
:1059E000FFC00FFFFFE00F802000000000003FFF1E
:1059F000FFFFFFFF8000002000FFC00FFFFFE00F50
:105A0000802000000000003FFFFFFFFFFFFFC01FDE
:105A1000F000000000003FF00F803FFE001FFFFF7E
:105A2000FFFFFFFFFFFFFFE01FF800000000003F47
:105A3000F00F803FFF001FFFFFFFFFFFFFFFFFFF93
:105A4000E00FF800000000003FF00FC03FFF800FA4
:105A5000FFFFFFFFFFFFFFFFFFE00FFC0000000064
:105A6000003FF007C038038007FF803FFFFFFFFFC4
:105A7000FFFFE00FFE00000000003FF007C018032A
:105A8000C007FF803FFFFFFFFFFFFFE00FFE0000AA
:105A90000000001FF007C01801C003FF801FFFFFB8
:105AA000FFFFFFFFE00FFF00000000001FF80000F5
:105AB0001801E003FF801FFFFFFFFFFFFFF007FF5C
:105AC000801FFC07FFFFF800001801E01FFF801F88
:105AD000FFFFFFFFFFF00007FF801FFE03FFFFF83F
:105AE00000001C00000000001FFFFFFFFFFFF00090
:105AF00007FFC00FFC00FFFFF800001C00000000C3
:105B0000001FFFFFFFFFFFF000000FC00FFC007F32
:105B1000FFF800000C00000000001FFFFFFFFFFF68
:105B2000F0000007E007F8007FFFF800000C00001D
:105B30000000000FFFFFFFFFFFF000000FE007F87D
:105B400000FFFFFC00000C00000000000FFFFFFF43
:105B5000FFFFF000000FF003F000FFFFFC00000C5F
:105B600000000000000FFFFFFFFFFFF000000FF03C
:105B700003F001FFFFFFFFFFFE00000000000FFF2A
:105B8000FFFFFFFFF000000FF801E001FFFFFFFF44
:105B9000FFFE00000000000FFFFFFFFFFFFF0000FF
:105BA0000FF801E003FFFFFFFFFFFE000000000011
:105BB00007FFFFFFFFFFFFFFC00FFC00E003FFFF39
:105BC000FFFFFFFFFFFFFFFFFFFFFFFFFFFFFFFFE5
:105BD000FFFF8FFC03FC07FFFFFFFFFFFFFFFFFF3F
:105BE000FFFFFFFFFFFFFFFFFFFFFFFFFE3FFF0F76
:105BF000FFFFFFFFFFFFFFFFFFFFFFFFFFFFFFFFB5
:105C0000FFFFFFFFFFFFFFFFCFFFFFFFFFFFFFFFD4
:105C1000FFFFFFFFFFFFFFFFFFFFFFFFFFFFFFFF94
:105C2000FFFFFFFFFFFFFFFFFFFFFFFFFFFFFFFF84
:105C3000FFFFFFFFFFFFFFFFFFFFFFFFFFFFFFFF74
:105C4000FFFFFFFFFFFFFFFFFFFFFFFFFFFFFFFF64
:1062700000002000C8130020000000002C4E000881
:106280004C4E00080C4E000800000000000000000A
:1062900000000000000000000000000000000000FE
:1062A00000000000000000000000000000000000EE
:1062B00000000000000000000000000000000000DE
:1062C00000000000000000000000000000000000CE
:0862D0000000000000000000C6
:0400000508003C694A
:00000001FF
